:100000000C9416040C9447040C9447040C94470475
:100010000C9447040C9447040C9447040C94470434
:100020000C9447040C94F4240C9447040C94470457
:100030000C9447040C9447040C9447040C94470414
:100040000C9447040C9447040C9447040C94470404
:100050000C9447040C9447040C9447040C944A24D1
:100060000C9447040C94BE240C9494240C944704E0
:100070000C9447040C9447040C9447040C944704D4
:100080000C9447040C9447040C9447040C944704C4
:100090000C9447040C9447040C9447040C944704B4
:1000A0000C9447040C9447040C9447040C944704A4
:1000B0000C9447040C9447040C9447040C94470494
:1000C0000C9447040C9447040C9447040C94470484
:1000D0000C9447040C9447040C9447040C94470474
:1000E0000C9447040C94EC1C0C94DC080C94A106B2
:1000F0000C9445050C947C230C9454060C94912389
:100100000C9422050C9488230C94100E0C94490531
:100110000C9426050C94291D0C9475230C94DE0D6B
:100120000C9484080C947F230C94A2230C94B72382
:100130000C941C1D0C94FA050C9498230C94F51C3B
:100140000C94FE0E0C94BE230C941C060C943105EA
:100150000C94BE0E0C941E0F0C942A050C948F2345
:100160000C94BE050C946A1F0C9453050C94EB057B
:100170000C94AD230C94DB080C943B050C941024D8
:100180000C94A5230C94B4230C9437050C94860985
:100190000C940E060C945D050C94BD050C940B0597
:1001A0000C9438280C945F250C9410050C94261D93
:1001B0000C94DC1F0C94F8210C94C2080C94F71FCB
:1001C0000C944F050C947D0E0C94B0230C941F1DC1
:1001D0000C94AD200C9486230C94460E0C9437217D
:1001E0000C9457050C9441050C9461050C949F1ECA
:1001F0000C942E050C949B234602000000FF08007F
:10020000053E5B4F5B3E053E6B4F6B3E051C3E7CE7
:100210003E1C05183C7E3C18051C577D571C051CD0
:100220005E7F5E1C0400183C1805FFE7C3E7FF046F
:100230000018241805FFE7DBE7FF0530483A060EF3
:1002400005262979292605407F05050705407F05F4
:10025000253F055A3CE73C5A057F3E1C1C08050813
:100260001C1C3E7F0514227F221405FFFFFFFFFFA9
:1002700005F0F0F0F0F003FFFFFF05000000FFFFC6
:10028000050F0F0F0F0F0508047E04080510207ED0
:1002900020100508082A1C0805081C2A080805AAB9
:1002A000005500AA05AA55AA55AA0530383E38308F
:1002B00005060E3E0E06020000015F03070007055B
:1002C000147F147F1405444AFF4A320563130864FF
:1002D000630536494936480107033E414103414120
:1002E0003E05082A1C2A080508083E08080260E0A6
:1002F0000408080808026060056010080403053E51
:100300005149453E0304027F05714949494605416B
:1003100049494936050F0808087F054F49494931C1
:10032000053E4949493005030101017F0536494928
:10033000493605064949493E026C6C026CEC0308DB
:100340001422041414141403221408050159090971
:1003500006053E415D594E057E0909097E057F4926
:10036000494936053E41414141057F4141413E05F4
:100370007F49494941057F09090901053E41414934
:1003800079057F0808087F03417F410530414141DD
:100390003F057F08142241057F40404040057F0211
:1003A0000C027F057F0408107F053E4141413E0558
:1003B0007F09090906053E4141617E057F0919292A
:1003C000460546494949310501017F0101053F4084
:1003D00040403F051F2040201F053F4038403F055B
:1003E0006314081463050304780403056151494547
:1003F00043037F41410503040810600341417F0529
:100400000402010204048080808003010204043895
:1004100044447C047F44443804384444440438440D
:10042000447F043854545804047E05010418A4A4DD
:100430007C047F040478017D0384857C047F10287C
:1004400044017F057C04780478047C040478043833
:1004500044443804FC24241804182424FC047C0498
:100460000408045854543403047F04043C40407C82
:10047000041C20407C053C4030403C046C10106C57
:10048000041CA0A07C046454544C0408364141016F
:100490007F04414136080402010201057F414141C8
:1004A0007F053E55555541053844443844057C2A5E
:1004B0002A3E14057E0202060605027E027E020521
:1004C0006355494163053844443C0405407E201E81
:1004D000200506027E020208631308646300606060
:1004E000052A2A2A2A2A03514A4403444A5105006C
:1004F00000FF010303E080FF0536123624360302B5
:100500000502021818021010053040FF0101041FF7
:1005100001011E000000000901017F017F020C02A1
:100520007F0000000000000100017D0418247E24EB
:1005300004447E454105221C141C2205012A7C2A04
:10054000010177044E55553903020002077E81BD33
:10055000A5A5817E0326292F0508142A1422040844
:1005600008081803080808077E81BD95A9817E0543
:1005700001010101010302050203242E24031915C0
:10058000120315150A02020104F820407805060935
:100590007F017F021818040080A0C003121F1003FF
:1005A0002629260522142A140808402F1008041EA4
:1005B000117C08402F10080462554C0915553F1056
:1005C00008041E117C053048484D40057815161466
:1005D00078057814161578057A1514157A057816A5
:1005E00015167905781514157805781415147807FB
:1005F0007E09097F494941059EA1612121057C545D
:10060000554644057C54564544057E55544546059B
:100610007C5554454403457E4403447E4503467D52
:100620004603457C4505087F49413E057C0A112269
:100630007D053844454638053844464538053A4531
:1006400044453A0538464546390538454445380558
:100650002214081422057C625A463E053C40414261
:100660003C053C4042413C053C4241423C053C414A
:1006700040413C0502047A0502043F12120C057E3B
:1006800049494E30043845467C043844467D043898
:1006900046457E043A45467D043845447D04304A4B
:1006A0004D7A0720545438545458049CA2622204B2
:1006B000385556580438545659043856555A043843
:1006C00055545902017A027A010302790203027831
:1006D0000204304B4B3C047A090A710430494A3019
:1006E0000430484A3104304A49320432494A31041C
:1006F000394444390508082A08080438544C380499
:10070000384142780438404279043842417A043A08
:1007100040407A0418A0A27904FC282810041AA0EA
:10072000A07A00002100240027002A002D003000BC
:10073000330001010000040107010A01000022004A
:10074000250028002B002E0031003400020100009B
:10075000050108010B01050505050705080808083E
:10076000020202020A0A0808040404040101010149
:100770000101010103030303030303030407070744
:100780000C0C0C0C0C0C0C0C0202020206060606E9
:10079000060606060B0B0B0B0B0B0B0B01021020B6
:1007A00020080810204010204080020102010804A7
:1007B000020101020408102040808040201008043B
:1007C0000201800402018040201008040201080494
:1007D00002010102040810204080010204081020D8
:1007E000408000000A0B02090C0D0E0807030401EB
:1007F00000000000000000000000000000000000F9
:1008000000000000000000000000000000001211C5
:1008100010000000000000000000000000000000C8
:1008200000000000000000005F25382811241FBED2
:10083000CFEFD1E2DEBFCDBF00E00CBF12E0A0E001
:10084000B2E0EAE4F6E500E00BBF02C007900D92CB
:10085000AA33B107D9F723E0AAE3B2E001C01D92A1
:10086000A732B207E1F714E0C5E1D4E000E006C02A
:1008700021970109802FFE010E94D629C431D1079A
:1008800080E00807A9F70E94AB250C94132B0C9469
:100890000000CF92DF92EF92FF920F931F93FC0123
:1008A00080A5882331F0A5A1B6A19D967C936E9377
:1008B0009C9780A5882331F0A5A1B6A157965C939B
:1008C0004E93569780A5882371F0A5A1B6A11896DE
:1008D0003C932E9317971A963C932E9319971C9638
:1008E0001C930E931B9780A5882349F005A0F6A1C1
:1008F000E02DF18EE08ED38EC28E168615861F9166
:100900000F91FF90EF90DF90CF900895829590E047
:100910009C0135952795359527952373880F991F49
:10092000880F991F8C7C282B30E0C90195958795FD
:100930008575220F331F2A7A822B0895CF93DF9378
:10094000262F2695382F70E0680F791FFC018E2F17
:10095000831B821750F4819161507109DB019C91D6
:10096000EF01219798838C93F2CFDF91CF91089577
:10097000482FFC018E2F841B8617E0F4219130E074
:10098000C901959587958575220F331F2A7A822B89
:1009900090E09C0135952795359527952373880F11
:1009A000991F880F991F8C7C822B8295DF011197EC
:1009B0008C93E0CF0895282F30E0F901EE51F84FE5
:1009C0009491F901E456F84F44912A5A384FF901AD
:1009D0002491222309F435C0992311F191509231C9
:1009E000F8F4E92FF0E08827E750FB4F8F4F0C9485
:1009F000D6292A052E050B052205260510053105E9
:100A000037053B054105450549054F0553051005CB
:100A100057055D056105809180008F778093800088
:100A2000E22FF0E0EE0FFF1FE45CF84FA591B491C8
:100A30008FB7F894EC91611148C040954E234C93C8
:100A40008FBF0895809180008F7DE8CF80918000D6
:100A5000877FE4CF84B58F7784BDE2CF84B58F7D67
:100A6000FBCF8091B0008F778093B000D9CF809179
:100A7000B0008F7DF9CF809190008F7780939000A8
:100A8000CFCF809190008F7DF9CF80919000877FAC
:100A9000F5CF8091A0008F778093A000C1CF809187
:100AA000A0008F7DF9CF8091A000877FF5CF809146
:100AB00020018F7780932001B3CF809120018F7D1B
:100AC000F9CF80912001877FF5CF4E2BB8CFCF9300
:100AD000DF9390E0FC01E456F84F24918A5A984F36
:100AE000FC0184918823D1F090E0880F991FFC01CC
:100AF000EE5DF84FA591B491FC01E45CF84FC5910F
:100B0000D491623071F49FB7F8943C91822F809514
:100B100083238C93E8812E2B28839FBFDF91CF9175
:100B200008958FB7F894EC912E2B2C938FBFF6CFAE
:100B30003FB7F8948091580290915902A0915A02BF
:100B4000B0915B0226B5A89B05C02F3F19F0019616
:100B5000A11DB11D3FBFBA2FA92F982F8827BC0117
:100B6000CD01620F711D811D911D42E0660F771F3F
:100B7000881F991F4A95D1F708950895AF92BF92A3
:100B8000CF92DF92EF92FF920F931F93CF93DF9359
:100B90006C017B018B01040F151FEB015E01AE1888
:100BA000BF08C017D10759F06991D601ED91FC91AA
:100BB0000190F081E02DC6011995892B79F7C501C7
:100BC000DF91CF911F910F91FF90EF90DF90CF9029
:100BD000BF90AF900895FC01538D448D252F30E0D8
:100BE000842F90E0821B930B541710F0CF9608953A
:100BF00001970895FC01918D828D981761F0A28D67
:100C0000AE0FBF2FB11D5D968C91928D9F5F9F732C
:100C1000928F90E008958FEF9FEF0895FC01918DE2
:100C2000828D981731F0828DE80FF11D858D90E04F
:100C300008958FEF9FEF0895FC01918D228D892FEC
:100C400090E0805C9F4F821B91098F7399270895D4
:100C50008CE592E00E941C0621E0892B09F420E03B
:100C6000822F0895FC01A48DA80FB92FB11DA35A9E
:100C7000BF4F2C91848D90E001968F739927848FBC
:100C8000A689B7892C93A089B1898C9183708064DF
:100C90008C93938D848D981306C00288F389E02D80
:100CA00080818F7D80830895EF92FF920F931F9331
:100CB000CF93DF93EC0181E0888F9B8D8C8D98130F
:100CC0001AC0E889F989808185FF15C09FB7F8941B
:100CD000EE89FF896083E889F98980818370806467
:100CE00080839FBF81E090E0DF91CF911F910F91B2
:100CF000FF90EF900895F62E0B8D10E00F5F1F4FC1
:100D00000F731127E02E8C8D8E110CC00FB607FCCF
:100D1000FACFE889F989808185FFF5CFCE010E945D
:100D20003206F1CFEB8DEC0FFD2FF11DE35AFF4F93
:100D3000F0829FB7F8940B8FEA89FB8980818062EB
:100D4000CFCFCF93DF93EC01888D8823B9F0AA89A8
:100D5000BB89E889F9898C9185FD03C0808186FD76
:100D60000DC00FB607FCF7CF8C9185FFF2CF8081C5
:100D700085FFEDCFCE010E943206E9CFDF91CF9102
:100D8000089580E090E0892B29F00E9428068111C7
:100D90000E94000080E090E0892B49F080E090E024
:100DA000892B29F00E94000081110E94000080E040
:100DB00090E0892B49F080E090E0892B29F00E9497
:100DC000000081110E94000080E090E0892B49F032
:100DD00080E090E0892B29F00E94000081110C94A2
:100DE00000000895FC01848D90A1A6A5B7A591FDF2
:100DF00015C0882381F0808D918D0597A9F481E03D
:100E000024A535A52A173B0709F080E080AB119790
:100E1000B7A7A6A70895828D938DEFCF882379F089
:100E2000808D918D059759F7CD01019697A786A7DB
:100E300081E011969C91911180E080AB0895828DA4
:100E4000938DF0CFFC01868997898230910591F4CA
:100E50002389348936A325A331A720A782309105A1
:100E600061F42189328933A722A7029749F08FEFD5
:100E700087A3089521893289EDCF23893489F3CF5F
:100E800081E0F6CFFC018385681738F52485358528
:100E900079E0679F200D311D1124848150E09381FA
:100EA000992371F0882331F087E090E0FC01E41B86
:100EB000F50BAF01240F351FF90180810C948604D6
:100EC000882331F087E090E0BC01641B750BAB0117
:100ED000240F351FF9018081089580E008958F92D5
:100EE0009F92AF92BF92CF92DF92EF92FF92CF93F9
:100EF000DF93FC01242F30E08381882309F447C06D
:100F000087E090E0821B930B91E001C0990F8A95D6
:100F1000EAF78385681708F040C024853585A90164
:100F200089E0689F400D511D1124BA01E48130E031
:100F300020E080E0A7E0B0E0C12CD12C7601C39482
:100F4000F22FAD01421B530BE11101C0A901460F65
:100F5000571FEA014881492351F04601570104C057
:100F6000880C991CAA1CBB1CFA95D2F788292F5F04
:100F70003F4F2830310521F7DF91CF91FF90EF905F
:100F8000DF90CF90BF90AF909F908F90089591E0A9
:100F900001C0990F4A95EAF7BCCF80E0EDCFFC0184
:100FA000228121110C946F070C944207462F477041
:100FB0006695669566950C94CF07CF92DF92EF9277
:100FC000FF921F93CF93DF93DC0158961C925897A2
:100FD00088E059968C9359975A961C925A975C962A
:100FE0001C921E925B978FEF90E05E969C938E937F
:100FF0005D9790961C921E925F9756968D919C914C
:101000005797009709F478C0FC012491263409F021
:1010100031C03196E491E13009F453C022E030E070
:10102000E23021F5FC01329624913196E49130E0D2
:10103000322F22272E0F311D5C963C932E935B9707
:10104000FC01349624913196E49130E0322F22272E
:101050002E0F311D5E963C932E935D97FC013696C4
:10106000E4915996EC93599727E030E090963C93A1
:101070002E935F975F96CD90DC909097F12CE12CAA
:101080005B962D913C915C975D96CD91DC915E973E
:1010900010E0C217D30770F1FC01EC0DFD1D449167
:1010A000141708F4142F50E070E060E04F5F5F4FBA
:1010B0006F4F7F4FC40ED51EE61EF71E2F5F3F4FAA
:1010C000E8CFFC013296E491F0E05C96FC93EE935D
:1010D0005B97FC013396E491F0E05E96FC93EE930F
:1010E0005D97FC013496E4915996EC93599725E06D
:1010F00030E0BCCF5A961C93DF91CF911F91FF90A7
:10110000EF90DF90CF9008958F929F92AF92BF9211
:10111000CF92DF92EF92FF920E9498054B015C0103
:1011200084E6C82ED12CE12CF12C0E949805681978
:1011300079098A099B09683E734081059105A8F3E6
:1011400021E0C21AD108E108F10888EE880E83E098
:10115000981EA11CB11CC114D104E104F10429F7AB
:101160008091510290915202019690935202809385
:101170005102FF90EF90DF90CF90BF90AF909F9083
:101180008F900895CF93DF931F921F92CDB7DEB754
:1011900069831A82DC01ED91FC910084F185E02DD8
:1011A000BE016F5F7F4F199581E090E00F900F9027
:1011B000DF91CF910895089590E080E00895CF9257
:1011C000DF92EF92FF920F931F93CF93DF93EC0187
:1011D00088858823A1F080913B02882361F08FB736
:1011E000F89490913B02913041F59DB390933A026F
:1011F0009DB39DBB8FBF80E58CBD81E08DBD60E060
:101200008F810E94DB0488858823D1F030E020E0C4
:101210008B8590E0880F991F28173907C8F5EE8550
:10122000FF85E20FF31F80818EBD00000DB407FE25
:10123000FDCF8EB52F5F3F4FEBCF80933A02DBCFD0
:1012400010E000E08B8590E0880F991F08171907C0
:10125000F8F4EE85FF85E00FF11FE080DE80CD80A1
:1012600088E0F82E6E2D661F6627661F8C2D0E9463
:10127000DB04EE0C61E08D2D0E94DB0460E08D2D1F
:101280000E94DB04FA94F110EDCF0F5F1F4FDACF0D
:1012900061E08F810E94DB048885882371F0809152
:1012A0003B02882351F09FB7F89420913B02809134
:1012B0003A02213059F48DBB9FBFDF91CF911F912E
:1012C0000F91FF90EF90DF90CF9008958FBFF5CFF3
:1012D0001F93CF93DF93EC01A881B9815A961C919B
:1012E0008EA9180F8BA9811768F48CA99DA9009766
:1012F00011F00E947A2A1BAB812F90E00E94DE2918
:101300009DAB8CABDF91CF911F910895CF92DF926F
:10131000EF92FF920F931F93CF93DF937C016B01AA
:10132000EA01CA0101960E94DE298C010097F1F0C2
:10133000AE01B6010E94032BF801EC0FFD1F1082D5
:10134000D701ED91FC910084F185E02DB801C70132
:101350001995C8010E947A2ACE01DF91CF911F9181
:101360000F91FF90EF90DF90CF900895D0E0C0E014
:10137000F3CFCF92DF92EF92FF920F931F93CF9311
:101380006C017B01C42F8901DC01D196ED91FC91A8
:10139000309709F1808191818E159F05C1F40280FB
:1013A000F381E02D80818C1708F4C82F4C2F50E07A
:1013B000BF016F5F7F4FC8010E94032B8C2FCF911D
:1013C0001F910F91FF90EF90DF90CF9008950480D0
:1013D000F581E02DDDCFF6018081918122AD33AD25
:1013E000DC0156964D915C912417350751F021157B
:1013F000310511F428EF31E0FC01378B268B0E9478
:10140000DD070115110509F448C0D6012D913C9165
:10141000F901878D90A1B0E0A0E0438D548DE416D2
:10142000F506A0F1658D768D6E157F0578F16689DC
:101430007789FB01E80FF91FE416F50659F0E491EE
:101440008E0F911DA11DB11D0196A11DB11D4F5FF4
:101450005F4FEFCF4491C41710F50196A11DB11D48
:10146000A801801B910B642F601B6C1708F0A6CF9E
:10147000BC01640F751FD9015696ED91FC91E60FE2
:10148000F71FE491DA01ED93AD01EDCF4C2F50E061
:1014900070E060E0C8010E940C2BC0E08FCFC491C7
:1014A000DCCF1F93CF93DF93EC01142F2CA93DA920
:1014B0004BA90E94B909112389F0882379F090E0A3
:1014C0002EA9921758F42BA9821730F4ECA9FDA984
:1014D000E80FF11D10828F5F9F5FF2CFDF91CF91F8
:1014E0001F9108950F931F93CF93DF93EC018B010E
:1014F000EEA5FFA541E08181811101C040E060813E
:1015000070E0CE010E94510AF801808328A19C8DD1
:1015100021FD10C0992359F0288D398D25303105D2
:1015200081F4682F8CA99DA90E949E040AC02A8D6F
:101530003B8DF4CF9923B9F0288D398D25303105B5
:1015400081F788A180FF06C0F80160818CA99DA960
:101550000E94B804CE010E94F20681E0DF91CF9193
:101560001F910F9108952A8D3B8DE8CF0F931F9304
:10157000CF93DF93EC01FB011082ACA5BDA5BFA703
:10158000AEA7109719F08C91811108C081E088AB4B
:1015900080E0DF91CF911F910F91089518AA8C8D53
:1015A00098A191FD10C0882359F0888D998D0597D9
:1015B00081F40D900020E9F71297BFA7AEA709C0EC
:1015C0008A8D9B8DF4CF882331F1888D998D059775
:1015D00081F7AEA5BFA541E011968C9111978111BD
:1015E00001C040E08B016C9170E0CE010E94510A75
:1015F000F801808328A19C8D21FD13C0992371F0EF
:10160000288D398D2530310599F4682F8CA99DA935
:101610000E949E040DC08A8D9B8DD9CF2A8D3B8D53
:10162000F1CF992399F0288D398D2530310569F74F
:1016300088A180FF06C0F80160818CA99DA90E9445
:10164000B804CE010E94F20681E0A3CF2A8D3B8D23
:10165000ECCFFC01438550E0440F551F70E060E083
:10166000868597850C940C2BBF92CF92DF92EF92D8
:10167000FF920F931F93CF93DF93FC012385621793
:1016800008F04EC0EC01F9E06F9F70011124D12CDD
:10169000C12C062F10E0BB24B394BC0CEC85FD8557
:1016A000EE0DFF1D808590E00C2C02C0959587956E
:1016B0000A94E2F780FF27C0CE010E94290B8B8598
:1016C0008150990B801B910B880F991F2E853F85A8
:1016D000820F931FFC01B082EC85FD85EE0DFF1D8E
:1016E000EC0DFD1D40818B858150990B801B910B6A
:1016F000880F991F2E853F85820F931FFC01418320
:10170000CE010E94DF08FFEFCF1ADF0A88E0C8167B
:10171000D10409F68C859D85E80EF91EF701108627
:10172000DF91CF911F910F91FF90EF90DF90CF90BD
:10173000BF9008950F931F93CF93DF93EC01162F63
:10174000042F822F9B8191110E94860499E0199F9A
:1017500090011124AC85BD85A20FB31F602F70E0EE
:101760009C8147E050E0461B570B911101C0AB0133
:10177000A40FB51F8C93EC85FD85E20FF31F208528
:101780008C818823F1F047E050E0461B570B81E045
:1017900090E0A0E0B0E004C0880F991FAA1FBB1F13
:1017A0004A95D2F7822B80878C89882321F0612F7C
:1017B000CE010E94340B81E0DF91CF911F910F91F8
:1017C000089581E090E0A0E0B0E004C0880F991F88
:1017D000AA1FBB1F0A95D2F7E5CF9F92AF92BF9287
:1017E000CF92DF92EF92FF920F931F93CF93DF93ED
:1017F000FC0189E0689FE001112481E090E0A0E015
:10180000B0E06C017D01042E04C0CC0CDD1CEE1C8C
:10181000FF1C0A94D2F7BC2C7C2D709507E010E0D9
:10182000041B110904C0880F991FAA1FBB1F0A952A
:10183000D2F7A82E382F309590E080E0022F10E0EC
:1018400027E0E22EF12CAC01A485B585AC0FBD1FBD
:10185000248193806801082E02C0D594C7940A940D
:10186000E2F7C0FE2AC0222319F0A701481B590B3A
:10187000A40FB51F2C914B2D91104A2D242B2C9386
:10188000019688309105F9F684859585C80FD91F92
:101890008FEF88878489882319F0CF010E94340B49
:1018A00081E0DF91CF911F910F91FF90EF90DF903A
:1018B000CF90BF90AF909F900895222319F0A70179
:1018C000481B590BA40FB51F2C91472F9110432F84
:1018D0002423D5CFFC0152813385552321F0631792
:1018E00030F40C94ED0B631710F40C949A0B80E019
:1018F0000895242F462F477033E0769567953A95E3
:10190000E1F70C946A0CFC0152813385552331F0C8
:10191000631750F4483041F00C949A0B631720F48D
:10192000483011F00C94ED0B80E00895CF92DF92D7
:10193000EF92FF920F931F93CF93DF93FC01722FCF
:1019400082815385882309F45DC0651708F0BEC005
:10195000283009F4BBC009E0609F70011124848520
:1019600095858E0D9F1D50E0A22FB0E0248122238B
:10197000B9F127E030E0E901C41BD50BAE012A1B09
:101980003B0B480F591FEA014881820F931FEC015E
:10199000488384859585E701C80FD91F28858481F0
:1019A000882301F147E050E04A1B5B0B81E090E0A7
:1019B000A0E0B0E004C0880F991FAA1FBB1F4A9582
:1019C000D2F7822B88878489811118C081E0DF914A
:1019D000CF911F910F91FF90EF90DF90CF900895DE
:1019E0009D01CFCF81E090E0A0E0B0E004C0880F7F
:1019F000991FAA1FBB1F7A95D2F7E3CFCF010E9490
:101A0000340BE4CFA42FB0E09381992309F44FC0A5
:101A100027E030E02A1B3B0B91E001C0990F2A958B
:101A2000EAF76517A0F6783091F2D9E06D9FA00132
:101A3000112401E010E020E030E068017901072E78
:101A400004C0CC0CDD1CEE1CFF1C0A94D2F7DC2D6C
:101A5000CC2DC095A7E0B0E0A71BB10904C0000FD2
:101A6000111F221F331FAA95D2F7F02E009530E0E8
:101A700020E0A485B585A40FB51FA20FB31F8C91DC
:101A80007381182F1923D9F0711117C07D2F872B5F
:101A90008C932F5F3F4F2830310559F7848595850A
:101AA000480F591F8FEFDA0118968C938CCF91E075
:101AB00001C0990F4A95EAF7B4CF7F2DE8CF711195
:101AC00003C07C2F8723E4CF702FFCCF80E07FCF33
:101AD0008F929F92AF92BF92CF92DF92EF92FF923E
:101AE0000F931F93CF93DF9300D000D01F921F92CC
:101AF000CDB7DEB78C01D62E29E0629F700111248C
:101B0000FA013197E730F10568F48827E557F24F7D
:101B10008F4F0C94D629DE0D100E460E7D0EBE0E94
:101B2000FE0E1E0FDC0112968C918823C1F130E06D
:101B300020E0D8011C96ED91FC911D97EE0DFF1D44
:101B4000E20FF31F808113969C91992331F190E06D
:101B50009595879580832F5F3F4F2830310549F752
:101B6000F80184859585E80EF91E8FEFD701189648
:101B70008C9381E028960FB6F894DEBF0FBECDBFE0
:101B8000DF91CF911F910F91FF90EF90DF90CF9059
:101B9000BF90AF909F908F900895880FDBCF87E024
:101BA00090E0D8011C96ED91FC91EE0DFF1DE80F21
:101BB000F91F208121830197A0F7D2CFF8018281FC
:101BC0008823E1F030E020E0D8011C96ED91FC91F3
:101BD0001D97EE0DFF1DE20FF31F808113969C9160
:101BE000992341F0880F80832F5F3F4F28303105C4
:101BF00059F7B6CF90E095958795F5CF81E090E0C5
:101C0000D8011C96ED91FC91EE0DFF1DE80FF91F18
:101C100020813197208301968830910589F7A0CFE4
:101C2000F801C28085898823F9F040E0C801CC2002
:101C3000C1F00E9442078983CC20C1F020E0CC246F
:101C4000C394C20E4C2D6D2DC8010E94960C2C2DF4
:101C50002730A9F7298147E06D2DC8010E94830C28
:101C60007FCF0E946F07E7CF1982E6CF87E090E031
:101C7000D8011C96ED91FC91EE0DFF1DE80FF91FA8
:101C80002081220F2083019798F7E4CFF801C280CA
:101C900085898823D9F047E0C801CC20A1F00E94B3
:101CA00042078983CC20A1F028E0CC24CA94C20E3C
:101CB0004C2D6D2DC8010E94960C2C2DC110F5CF16
:101CC000298140E0C9CF0E946F07EBCF1982EACF8C
:101CD00030E020E0D8011C96ED91FC91EE0DFF1D47
:101CE000E20FF31F808190E09595879580832F5FA9
:101CF0003F4F2830310571F7E3CFF8018281882307
:101D0000C1F0B12CA12CD8011C96CD90DC90CE0C4A
:101D1000DF1CCA0CDB1CF60180810E948604D60100
:101D20008C93BFEFAB1ABB0AE8E0AE16B10459F7CB
:101D300017CF30E020E047E050E0D8011C968D91AD
:101D40009C918E0D9F1DFC01E20FF31FD080BA0104
:101D5000621B730B860F971FDC018C918083D80167
:101D60001C96ED91FC91EE0DFF1DE60FF71FD08242
:101D70002F5F3F4F2430310501F7F2CEF801828109
:101D8000882329F130E020E047E050E0D8011C969C
:101D90008D919C918E0D9F1DFC01E20FF31FD08051
:101DA000BA01621B730B860F971FDC018C91808335
:101DB000D8011C96ED91FC91EE0DFF1DE60FF71F6B
:101DC000D0822F5F3F4F2430310501F7C9CEB12CAF
:101DD000A12CF801C484D584CE0CDF1CCA0CDB1CFA
:101DE000D6018C910E948604F6018083FFEFAF1A22
:101DF000BF0A28E0A216B10461F7B2CECE01019667
:101E00005C014C0187E0C82E4C2D6D2DC8010E944D
:101E1000CF07D4018D934D01CA94BFEFCB12F4CFFD
:101E2000C12CF50121915F014C2D6D2DC8010E943F
:101E3000830CC394F8E0CF12F4CF92CE90E080E010
:101E4000D8011C96ED91FC91EE0DFF1DE80FF91FD6
:101E500020812095208301968830910589F780CED6
:101E6000CF92DF92EF92FF920F931F93CF93DF9366
:101E7000EC01DD24D394F12CE12C01E010E0B9E079
:101E8000CB2ECE010E94290B98010E2C02C0220FEE
:101E9000331F0A94E2F7E0E090E08B85E81798F5AD
:101EA000EC9DA0011124AC85BD85A40FB51F18962B
:101EB0006C9170E062237323672B19F16E2F70E031
:101EC0008150990B861B970B880F991FAE85BF8594
:101ED000A80FB91FDC92AC85BD85A40FB51FAE0D50
:101EE000BF1DFC918B858150990B861B970B880F2A
:101EF000991F4E855F85840F951FDC011196FC9319
:101F000091E0EF5FCACF992319F0CE010E94DF085C
:101F1000BFEFEB1AFB0AD39488E0E816F10409F04E
:101F2000B0CF80E099E02B85821748F4EC85FD85E1
:101F3000899FE00DF11D112410868F5FF4CFDF9192
:101F4000CF911F910F91FF90EF90DF90CF90089568
:101F5000CF93DF93C9E078E05FEF4617B0F06C9F56
:101F600090011124FC01A485B585A20FB31FFD01CA
:101F7000D72F1192DA95E9F7DC011C96ED91FC91CF
:101F8000E20FF31F50876F5FE8CFFC012489222303
:101F900021F0DF91CF910C94300FDF91CF91089514
:101FA0006F927F928F929F92AF92BF92CF92DF9269
:101FB000EF92FF920F931F93CF93DF9300D000D047
:101FC00000D0CDB7DEB78C01E62EF42E5901D12C0E
:101FD000461708F4D5C0DC015496DC90549754960B
:101FE0001C9224303105B0F522303105C8F521307E
:101FF000310509F4DBC0D80155968C91882309F48A
:1020000086C06F2D660F660F660F695FC8010E945C
:10201000D607C82EAE2CB12C8F2D0F2C000C990B8F
:102020008A159B050CF489C050E040E06F2DC80173
:102030000E94680D99249A949F0C47E0692DC8016D
:102040000E94CF07282F40E06F2DC8010E946A0C24
:10205000F92CE2CF2430310561F02830310558F6F3
:10206000A5016E2DC8010E94680DE394FE14C0F70F
:102070007EC0642F70E0AE2CB12C4B018A189B08F7
:10208000BFEF8B1A9B0A97FE03C0EFEF8E1A9E0AD2
:1020900095948794712C29E0C22E472D50E0481565
:1020A00059050CF0CFC0F80124853585FA01EA0DF9
:1020B000FB1DCE9EC001CF9E900D1124820F931F59
:1020C000FC01DE0111966C2C01900D926A94E1F7EF
:1020D000FB01E41BF50BCE9EA001CF9E500D1124F9
:1020E000F901E40FF51FDC018C2D01900D928A950A
:1020F000E1F7F801A485B585A40FB51FFE0131965F
:102100008C2D01900D928A95E1F77394C6CFF8015A
:10211000A288B388A114B10471F06F2D660F660F09
:10212000660F695FC8010E94D607482F70E060E023
:102130008F2DF5011995C12C6DCFD8015096ED91D9
:10214000FC915197309749F055968C91811105C0BB
:1021500070E060E08E2D1995C82EB50183E0660F02
:10216000771F8A95E1F74C2DC8010E94790CD801A0
:102170005496DC92DD2009F46FC0C8010E94300F34
:102180008D2D29960FB6F894DEBF0FBECDBFDF911F
:10219000CF911F910F91FF90EF90DF90CF90BF9064
:1021A000AF909F908F907F906F900895FC018589EC
:1021B0008823A9F1660F660F660FC8010E94D60733
:1021C000C82E41E050E06E2DC8010E94680DBB246E
:1021D000B394BE0C40E06B2DC8010E94CF07282F9E
:1021E00047E06E2DC8010E946A0CEB2CFB1448F7E7
:1021F000D8015096ED91FC915197309749F0559642
:102200008C91811105C061E070E08F2D1995C82E69
:10221000B8E0FB9EB0011124695F7F4FA4CFA28874
:10222000B388A114B10461F0660F660F660FC80190
:102230000E94D607482F61E070E08E2DF5011995B8
:10224000C12CBFCF44E050E06E2DC8010E94680D44
:10225000E394FE14B8F78BCFDD24D39491CF8F9203
:102260009F92AF92BF92CF92DF92EF92FF920F9325
:102270001F93CF93DF93EC01F62E8D859E8544232B
:1022800009F4E0C08E01095C1F4F35E0C32ED12C4C
:1022900082309105E9F050F08330910509F441C096
:1022A000049709F4A8C085E090E00FC0BE01695C06
:1022B0007F4FCE010E94B60A811103C086E090E0F4
:1022C00004C019AE18AE83E090E09E878D870DC0E4
:1022D0001FAA88A98823B1F0DE86CD868D859E85CC
:1022E0002FA9211116C0059799F7DF91CF911F9162
:1022F0000F91FF90EF90DF90CF90BF90AF909F90A5
:102300008F900895B801CE010E94720A8111E6CF24
:10231000E3CF059751F319AE18AE83E090E09E87A6
:102320008D878FA9882329F121E02F2530E04CA14A
:102330006BA1888199810E94D00F888199816D8DD0
:102340002CA93DA948AD59AD662301F1BA016F5FD3
:102350007F4F79AF68AF240F351FF9014081409559
:10236000FF20F1F06BA1F8E06F9FB00111240E94F3
:10237000790C2FA988AD99AD2817190609F0B5CFAA
:1023800088A9811115C082E090E09FCFBA016F5FEC
:102390007F4F79AF68AF240F351FF9014081E0CF3F
:1023A0006CA128E0629FB0011124695F7F4FDFCFED
:1023B00029893A89FF20B1F08F859889A901481BA6
:1023C000590BCA0101962BA158E0259F801991094C
:1023D000112499AF88AF181619060CF064CF84E069
:1023E00090E073CF8CA1E8E08E9FC0011124079686
:1023F000821B930BEECF21E0262730E04CA16BA18E
:10240000888199810E94D00F888199814D8D419555
:10241000FF2081F06BA1F8E06F9FB00111240E94B2
:10242000790C88AD99AD019799AF88AF892B09F0E8
:102430005CCF39CF6CA128E0629FB0011124695FA5
:102440007F4FEDCF8430910539F0059709F036CFF5
:1024500084E090E09E878D8721E02F2530E04CA11D
:102460006BA1888199810E94D00F888199814D8DBF
:102470004195FF2009F445C06BA138E0639FB0018E
:1024800011240E94790C0CA110E0ABA0B12C6801C2
:10249000CA18DB088FEFC81AD80A23E0CC0CDD1C61
:1024A0002A95E1F78E8D9F8D009721F08C159D0563
:1024B00008F46C010F5F1F4F83E0000F111F8A9516
:1024C000E1F793E0AA0CBB1C9A95E1F7FF2021F1FC
:1024D00045017401EA18FB0880169106DCF5682DA9
:1024E000888199810E94D60790E02D8D222389F062
:1024F0002FEF30E08217930769F5EFEF8E1A9E0AEF
:10250000E8CF6CA158E0659FB0011124695F7F4F4F
:10251000B8CF30E020E0EECF01501109F12CE12CD2
:102520000A151B05BCF0602F888199810E94D6078F
:1025300090E02D8D222359F02FEF30E08217930782
:1025400049F401501109FFEFEF1AFF0AE9CF30E01B
:1025500020E0F4CFEC14FD0408F0B0CEC6CECF934B
:10256000DF93EC014CA16BA1461720F08881998183
:102570000E94A80F8D8D882351F027E030E04CA1F8
:102580006BA188819981DF91CF910C94D00FDF915D
:10259000CF910895CF92DF92EF92FF920F931F9306
:1025A000CF93DF93EC010E94AF12C988DA887E01D5
:1025B00087E3E80EF11CB701CE010E94B60A19AEFE
:1025C00018AE86018B899C89081719077CF18FA9A1
:1025D00028AD39AD8217130611F081110AC01FAA68
:1025E00088A9811104C0B701CE010E94720A19AEF8
:1025F00018AE8FA9882331F38881998148AD59ADF0
:102600009A012F5F3F4FECA9FDA9E40FF51F4D8DF7
:1026100039AF28AF442341F040814095B8010E9472
:10262000790C01501109CECF4081F8CFDF91CF91C5
:102630001F910F91FF90EF90DF90CF900895FF9240
:102640000F931F93CF93DF93EC01F62E8D859E851C
:10265000442309F462C08430910530F5019758F1A4
:102660008D859E85059721F483E090E09E878D8778
:10267000CE010E94CA120DA11EA12FA18AA59BA561
:10268000820F911D27FD9A9580179107E1F04D8DDE
:102690004195B801888199810E94790C8FA1080F1A
:1026A000111D87FD1A95E9CF0597D1F285E090E0DD
:1026B0009E878D872CC0CE010E94220783E090E088
:1026C0009E878D87CDCFFF2069F06DA17EA1061773
:1026D000170741F04D8D81E0482741958881998108
:1026E0000E94790C8DA19EA12FA1022E000C330B0C
:1026F0004AA55BA5420F531F8417950721F445E0B7
:1027000050E05E874D87820F931F9EA38DA3DF91BC
:10271000CF911F910F91FF9008958430910500F59E
:10272000019700F1CE010E94CA1208A519A56DA15A
:102730007EA18FA1082E000C990B9B01280F391F39
:1027400020173107B9F04D8D4195B80188819981E5
:102750000E94790C8FA1080F111D87FD1A95E7CFF4
:10276000059751F5CE010E94220783E090E09E87F5
:102770008D87D8CFFF2079F02AA53BA5820F931F24
:102780006817790741F04D8D81E048274195888190
:1027900099810E94790C8DA19EA12FA1022E000C7F
:1027A000330B4AA55BA5420F531F8417950709F009
:1027B000AACF46E050E0A5CF86E090E079CFCF9257
:1027C000DF92EF92FF921F93CF93DF93EC01D42E11
:1027D0008D859E85662309F458C084309105A8F53F
:1027E0000197D0F1CE010E94CA122DA13EA128303E
:1027F000310569F1E8A4F9A481E090E001C0880FF7
:102800002A95EAF7182FD11010952FA18AA59BA51C
:10281000820F911D27FD9A958E159F0549F1C8805D
:10282000D9806E2DC6010E94D6079D8D412F992318
:10283000E9F04095482BB701C6010E94790C8FA1A1
:10284000E80EF11C87FDFA94E0CF059759F285E078
:1028500090E09E878D8711C0CE010E9422071EA2A4
:102860001DA283E090E09E878D87BCCF4823E3CFF5
:102870008DA19EA101969EA38DA3DF91CF911F9163
:10288000FF90EF90DF90CF9008958430910598F5F8
:10289000019798F1CE010E94CA128DA19EA110E06D
:1028A00097FD05C011E001C0110F8A95EAF7E8A471
:1028B000F9A4D11010952FA18AA59BA5820F911D77
:1028C00027FD9A958E159F0531F1C880D9806E2D10
:1028D000C6010E94D6079D8D412F9923D1F04095C6
:1028E000482BB701C6010E94790C8FA1E80EF11C9C
:1028F00087FDFA94E0CF0597C1F4CE010E9422072C
:1029000087E090E09EA38DA383E090E09E878D8773
:10291000C1CF4823E6CF8DA19EA197FF04C026E03A
:1029200030E03E872D870197A6CF86E090E091CFDB
:10293000FF920F931F93CF93DF93EC01F42E8D85BD
:102940009E85662309F444C08430910538F50197CB
:1029500060F1CE010E94CA122DA13EA18AA59BA5BD
:1029600028173907E9F008A519A58FA1082E000C32
:10297000990B2DA13EA14AA55BA5480F591F4017F1
:10298000510709F464C0F11018C002171307C1F40D
:102990008FA1080F111D87FD1A95E7CF0597C9F282
:1029A00085E090E09E878D8756C0CE010E94220769
:1029B00083E090E09E878D87CCCF0217130741F705
:1029C0004D8D4195B801888199810E94790CE0CFA5
:1029D0008430910500F5019700F1CE010E94CA12E2
:1029E00008A519A54AA55BA58FA1082E000C990B77
:1029F0002DA13EA1BA01680F791F6017710701F17F
:102A0000F11013C00217130799F48FA1080F111DBD
:102A100087FD1A95E7CF059721F5CE010E94220781
:102A200083E090E09E878D87D8CF0217130769F760
:102A30004D8D4195B801888199810E94790CE5CF2F
:102A40002417350724F446E050E05E874D87820F57
:102A5000931F9EA38DA3DF91CF911F910F91FF90A4
:102A6000089586E090E09ECFCF92DF92EF92FF92A2
:102A70000F931F93CF93DF93EC01162F8D859E85C7
:102A8000442309F458C084309105B0F5019708F447
:102A90003AC0CE010E94CA122DA13EA190E080E072
:102AA000111102C08FEF90E02817390739F1E8A41F
:102AB000F9A42FA18AA59BA5820F911D27FD9A95A8
:102AC0008E159F0581F10D8DC880D9806E2DC601B0
:102AD0000E94D607011180954DA111114095482300
:102AE00001114095B701C6010E94790C8FA1E80E33
:102AF000F11C87FDFA94DDCF059759F285E090E04F
:102B00009E878D8771C0CE010E9422078FEF90E0D3
:102B1000111102C081E090E09EA38DA383E090E0BC
:102B20009E878D87B6CF8DA19EA1112309F457C032
:102B30009595879557C08430910550F5019750F1D0
:102B4000CE010E94CA12E8A4F9A42FA18AA59BA5D0
:102B5000820F911D27FD9A958E159F0559F10D8DB8
:102B6000C880D9806E2DC6010E94D60701118095BC
:102B70004DA111114095482301114095B701C6019F
:102B80000E94790C8FA1E80EF11C87FDFA94DDCF2D
:102B90000597C1F4CE010E94220781E090E0111157
:102BA00002C08FEF90E09EA38DA383E090E09E870C
:102BB0008D87C6CF8DA19EA1111107C0009709F086
:102BC000B7CF06C086E090E09BCF8F3F910539F4E8
:102BD00026E030E03E872D87112309F4A9CF880F26
:102BE000991F81609EA38DA3DF91CF911F910F91BB
:102BF000FF90EF90DF90CF900895EF92FF920F93A8
:102C00001F93CF93DF93EC01162F8D859E85442370
:102C100009F488C08330910528F00397B1F185E06D
:102C200090E02AC069897A898B899C899B01281B3D
:102C3000390BC90137FD01969595879501969EA39D
:102C40008DA31123B9F04D8D11E041274195681BEB
:102C5000790B888199810E94790C4D8D412741958E
:102C60006B897C898DA19EA1680F791F88819981CC
:102C70000E94790C83E090E09E878D87DF91CF9151
:102C80001F910F91FF90EF9008958DA19EA197FD48
:102C9000C6CFCE010E94CA12F12CE12C6DA17EA1FB
:102CA000E616F706C4F44D8D41956B897C896E0D4F
:102CB0007F1D888199810E94790C4D8D419569898C
:102CC0007A896E197F09888199810E94790C3FEF7A
:102CD000E31AF30AE3CF615071097EA36DA31123B8
:102CE00069F277FDCBCF4D8D11E0412741958B895E
:102CF0009C89680F791F888199810E94790C4D8D7C
:102D00004127419569897A898DA19EA1681B790B1C
:102D100088819981DF91CF911F910F91FF90EF9062
:102D20000C94790C8330910531F108F077C001974C
:102D300008F477C0CE010E94AF12CE010E94CA12E1
:102D40001EA21DA2112399F04D8D01E0402741954F
:102D500069897A89888199810E94790C4D8D4027F3
:102D600041956B897C89888199810E94790C83E0E7
:102D700090E09E878D872DA13EA169897A898B89F4
:102D80009C89AB01481B590BCA0157FD01969595CB
:102D90008795821793070CF444C04D8D4195621BB3
:102DA000730B888199810E94790C4D8D41956B89B7
:102DB0007C898DA19EA1680F791F888199810E94CD
:102DC000790C2DA13EA12F5F3F4F3EA32DA31123D0
:102DD00009F454CF69897A898B899C89AB01481B96
:102DE000590BCA0157FD0196959587958217930750
:102DF0000CF444CF4D8D11E041274195621B730BBC
:102E0000888199810E94790C4D8D412741956B896C
:102E10007C898DA19EA1680F791F7ACF059709F44F
:102E200089CF86E090E028CFCF92DF92FF920F9378
:102E30001F93CF93DF93EC01F62E8D859E8544235F
:102E400009F484C08330910570F0039751F185E057
:102E500090E09E878D87DF91CF911F910F91FF901A
:102E6000DF90CF9008951EA21DA2CE010E94AF1246
:102E7000FF2099F04D8D11E04127419569897A89AC
:102E8000888199810E94790C4D8D412741956B89EC
:102E90007C89888199810E94790C83E090E09E87EB
:102EA0008D87CE010E94AF12CE010E94CA120B89FB
:102EB0001C8989899A89801B910B97FD01966C0169
:102EC000D594C7948DA19EA1080F191FC816D906C5
:102ED0000CF4BDCF0F5F1F4F69897A898DA19EA128
:102EE0009B01281B390B0217130744F44D8D4195A4
:102EF000B801888199810E94790CECCF01969EA33C
:102F00008DA3FF2009F4A7CFC816D9060CF4A3CFD0
:102F10004D8D11E041274195681B790B888199817E
:102F20000E94790C4D8D412741956B897C898DA13B
:102F30009EA1680F791F88819981DF91CF911F91A0
:102F40000F91FF90DF90CF900C94790C8330910516
:102F5000D1F1A0F50197A0F189899A892B893C8943
:102F6000821B930B97FD0196959587959EA38DA344
:102F7000CE010E94AF12CE010E94CA12FF20D9F0EA
:102F80004D8D11E04127419569897A898DA19EA1D6
:102F9000681B790B888199810E94790C4D8D41279E
:102FA00041956B897C898DA19EA1680F791F8881CD
:102FB00099810E94790C83E090E04BCF059761F2F4
:102FC00086E090E046CF8DA19EA197FDF9CF4D8D73
:102FD000419569897A89681B790B888199810E945A
:102FE000790C4D8D41956B897C898DA19EA1680FCF
:102FF000791F888199810E94790C8DA19EA10197EA
:103000009EA38DA3FF2009F426CF97FD24CF4D8DDD
:1030100011E04127419569897A897ECFCF92DF926D
:10302000EF92FF920F931F93CF93DF93EC01D62E75
:10303000C42E790180E04617E0F02A30310508F00F
:1030400069C0CE010E94290B92E0E916F10409F44F
:1030500053C0C0F4E114F10429F1F1E0EF16F104DA
:1030600009F443C0D394CD1478F7CE010E94DF0851
:1030700081E0DF91CF911F910F91FF90EF90DF9052
:10308000CF90089583E0E816F104E9F194E0E916A1
:10309000F10441F781E00115110509F480E0819503
:1030A00099E006C081E00115110509F080E09CE07F
:1030B0004D2D50E02B852150330B241B350B220F57
:1030C000331F6E857F85260F371FF90190832B856F
:1030D0002150330B241B350B220F331F4E855F8588
:1030E000240F351FF9018183BDCF802F08301105D2
:1030F0000CF087E09BE0DCCF802F003111050CF055
:103100008FE09AE0D5CF81E00115110509F480E048
:103110009FE0CECF81E00130110509F080E0FBE0B7
:10312000EF16F10449F08C8B0130110509F0A0CFA6
:10313000CE010E94300F9CCF8D8B9ACFAF92BF9261
:10314000CF92DF92EF92FF920F931F93CF93DF9373
:10315000EC01F62E8D859E85442309F46EC08430E3
:10316000910580F50197A8F1CE010E94AF12CE0122
:103170000E94CA12CBA088E0C89E60011124EE24F0
:10318000E394F11002C050E8E52E0DA11EA18CA120
:1031900090E0019643E0880F991F4A95E1F7C81621
:1031A000D906ACF5A880B9806C2DC5010E94D60760
:1031B000101624F5FF2001F1880F9D8D91118E29A5
:1031C0000150F6CF059781F285E090E09E878D87CC
:1031D00029C087E090E09EA38DA310E000E02BE0E3
:1031E00030E04CA16BA1888199810E940E1883E088
:1031F00090E09E878D87B8CF8695DFCF482FB601A8
:10320000C5010E94790C8FEFC81AD80ABECF0115EC
:10321000110521F485E090E09E878D87015011090A
:103220001EA30DA3DF91CF911F910F91FF90EF90FF
:10323000DF90CF90BF90AF9008958430910560F5F6
:10324000019760F10BA188E0089F8001112430E80C
:10325000E32EF11002C0EE24E3948CA190E00196DD
:1032600023E0880F991F2A95E1F708171907FCF446
:10327000C880D980602FC6010E94D607482FFF2042
:10328000A1F046958D8D81114E29B801C6010E948D
:10329000790C0F5F1F4FE1CF0597B1F41EA21DA25D
:1032A00083E090E09E878D87CDCF440FEBCF8DA13B
:1032B0009EA18730910521F426E030E03E872D87DE
:1032C00001969EA38DA3AECF86E090E07FCF0F93B3
:1032D0001F93FC0161A3062F10E022E030E044A11F
:1032E00063A1808191810E940E181F910F91089512
:1032F000AF92BF92CF92DF92EF92FF920F931F9304
:10330000CF93DF93EC01F62EE42E8D859E8522234C
:1033100009F4D9C08430910588F50197B0F1CE0148
:103320000E94AF12CE010E94CA120DA11EA1EE2072
:1033300009F464C0EE24E394F11002C070E8E72EB3
:10334000CDA0DEA08CA190E0019663E0880F991FCC
:103350006A95E1F708171907BCF5A880B980602FB6
:10336000C5010E94D6079C2D191624F5FF2001F1F6
:10337000880F2D8D21118E299150F6CF059779F266
:1033800085E090E09E878D8793C087E090E09EA3C4
:103390008DA310E000E02BE030E04CA16BA1888110
:1033A00099810E940E1883E090E09E878D87B7CFA9
:1033B0008695DFCFB8016C197D09482FC5010E94A1
:1033C000790C0F5F1F4FBCCF10E000E08DA19EA1D4
:1033D000081719070CF061C04D8D41956CA128E0CC
:1033E000629FB0011124695F7F4F601B710B888160
:1033F00099810E94790C0F5F1F4FE8CF8CA138E0B4
:10340000839FC00111249C01201B310B8901085F9F
:103410001F4FEE24E394F11002C050E8E52ECDA03A
:10342000DEA08BA138E0839FC00111240817190783
:10343000ECF0A880B980602FC5010E94D6079C2DB2
:10344000191654F4FF2031F0880F2D8D21118E298B
:103450009150F6CF8695F9CFB8016C0D7D1D482FA0
:10346000C5010E94790C01501109D9CF10E000E08C
:103470008DA19EA10817190784F44D8D41956BA16C
:1034800088E0689FB0011124600F711F88819981C5
:103490000E94790C0F5F1F4FEBCF8DA19EA100976B
:1034A00021F425E030E03E872D8701979EA38DA370
:1034B000DF91CF911F910F91FF90EF90DF90CF9010
:1034C000BF90AF9008958430910580F5019788F101
:1034D000EE20C1F10CA128E0029F800111240A5FB7
:1034E0001F4F40E8B42EF11002C0BB24B394C88033
:1034F000D9808BA138E0839FC001112408171907D8
:103500000CF450C0602FC6010E94D607482FFF2040
:10351000B9F046958D8D81114B29B8016F5F7F4FB2
:10352000C6010E94790C01501109E1CF059709F0FD
:1035300059C01EA21DA283E090E09E878D87C8CF50
:10354000440FE8CF0BA188E0089F800111240F5F92
:103550001F4F30E8B32EF11002C0BB24B394C880D3
:10356000D9808CA190E0019623E0880F991F2A95BD
:10357000E1F708171907B4F4602FC6010E94D607B7
:10358000482FFF2069F046958D8D81114B29B80198
:1035900061507109C6010E94790C0F5F1F4FDFCF88
:1035A000440FF2CF888199814D8D4195EE2091F0A5
:1035B0006BA128E0629FB00111240E94790C8DA1BB
:1035C0009EA18730910521F426E030E03E872D87CB
:1035D00001966CCF6CA138E0639FB0011124695F44
:1035E0007F4FEBCF86E090E0CDCE0F931F939B01F2
:1035F0008A01FC014385415060E00E940E181F9132
:103600000F9108952F923F924F925F926F927F9207
:103610008F929F92AF92BF92CF92DF92EF92FF92E2
:103620000F931F93CF93DF9300D000D000D01F9251
:103630001F92CDB7DEB79B838A8304969D838C83CC
:1036400050E040E06AE070E00E94F51A212C1982F7
:1036500006E010E0E5E04E2E512CF3E06F2E712CC9
:10366000AA81BB8198968C919897281610F00C949B
:10367000EE239596ED91FC9124E4229EE00DF11D40
:103680001124FB87EA8712A22585368581E0263042
:10369000310509F4CCC1848D882319F18781908587
:1036A000B0E0A0E02530310511F12FB7F89440913A
:1036B00054025091550260915602709157022FBFEB
:1036C000EA85FB85C380D480E580F6804C195D09CE
:1036D0006E097F09481759076A077B0740F580E0A4
:1036E000A6C1AA85BB8519968D919C91D9CF2FB77C
:1036F000F894409154025091550260915602709195
:1037000057022FBFEA85FB85C380D480E580F68011
:103710004C195D096E097F09C384D484F12CE12C16
:103720004C155D056E057F0508F0BFCFD8CFAA8583
:10373000BB8512969C909110D2CF2FB7F8948091B0
:10374000540290915502A0915602B09157022FBF9A
:10375000EA85FB8583839483A583B68381E082A376
:10376000A4A4B5A4A114B10409F457C18585968514
:10377000009709F435C0069709F44FC1AA85BB85A7
:103780005C963C905C97332009F4FAC05896ED9112
:10379000FC913197EC31F10508F099C38827EC5280
:1037A000F44E8F4F0C94D629EC1CF51C1C1D1F1DCC
:1037B000261DF821291D9F1E6A1FAD20F71F3721E6
:1037C00075237C2386237F238F23882391239823AB
:1037D0009B23A223A523AD23B023B423B723BE2369
:1037E000AA85BB859F96BC92AE929E979496EC90CC
:1037F000B8E0EB9E70011124F70137967F01AA858E
:10380000BB8593968C91B8E08B9FE018F10811244A
:10381000EFEFEE1AFE0AD12CC12CD5016D915D019E
:103820006623C1F0EA85FB8524A935A970E043A988
:10383000CF010E94B90990E0C80ED91E892B69F307
:10384000D5018C91882349F3EA85FB8586A9C80EAA
:10385000D11CE3CFAA85BB855096DC92CE921F97F0
:1038600056968D919C918130910509F455C028F0B0
:10387000029771F1992493941DC0EA85FB8584A178
:1038800090E0019673E0880F991F7A95E1F79C010B
:1038900021503109328B218BEC14FD0490F483A16B
:1038A000F8E08F9FC0011124AA85BB8554969C9394
:1038B0008E93539781E09826EA85FB85958A848FBD
:1038C0005DCF8C199D09EA85FB85948B838BD2CFC4
:1038D000AA85BB8593968C91B8E08B9FC00111247B
:1038E000EA85FB85948B838BEC14FD0468F484A13A
:1038F000F8E08F9FC00111240796AA85BB855296D8
:103900009C938E935197D6CF0197C80ED91EEA8506
:10391000FB85D28AC18AAECFAA85BB8593962C91AE
:10392000B8E02B9F90011124EC14FD0498F4EA8573
:10393000FB8584A1F8E08F9FC00111240796AA851A
:10394000BB8552969C938E93519754963C932E939D
:103950005397B0CFEC18FD08F694E794E20EF31EEF
:10396000EA85FB85F48AE38AF1E0CF1AD108CE0C10
:10397000DF1CAA85BB855296DC92CE9251977ACFF6
:10398000AA85BB855A96ED91FC913197EC31F105F2
:1039900008F09DC28827E053F34E8F4F0C94D62930
:1039A000DC1FF51C1C1D1F1D261DF821291D9F1E37
:1039B0006A1FAD20F71F372175237C2386237F23C1
:1039C0008F238823912398239B23A223A523AD2310
:1039D000B023B423B723BE238A859B850E94CA12D5
:1039E000EA85FB855686458606C0432D61E08A85BB
:1039F0009B850E949E18AA85BB855C968C915C97DE
:103A00001D962D913C91882329F081E025303105C8
:103A100009F480E0EA85FB85848F81E0AA85BB8577
:103A20001D962D913C912630310509F058CEB98173
:103A3000B82BB983239414CE432D60E0D8CF432D07
:103A400061E08A859B850E942F11D5CF432D60E0D0
:103A5000F8CFEA85FB8585859685332009F4EAC091
:103A60007F01F7E3EF0EF11C82309105A1F130F0F8
:103A7000039709F45BC0AA85BB8566C26A857B850E
:103A8000695C7F4F8A859B850E94B60A811103C0BD
:103A9000AA85BB859AC68A859B850E94AF12EA8556
:103AA000FB8511AE10AE83A1F8E08F9FC0011124F9
:103AB000AA85BB8596969C938E93959751968D91EA
:103AC0009C9152979B969C938E939A971E967C926C
:103AD0006E921D9790CFEA85FB8517AA80A988234F
:103AE00081F0AA85BB851E965C924E921D97EA8551
:103AF000FB858585968527A921110BC0059759F768
:103B00007ACFB7018A859B850E94720A8111EFCF17
:103B1000E8CF059709F46FCFAA85BB85D9961C928B
:103B20001E92D8971E967C926E921D97EA85FB8511
:103B300065A176A182A593A504A8F5A9E02DAA8583
:103B4000BB85D8962D913C91D997E20FF31F408108
:103B50006817790751F48D919C9111975D962C917E
:103B6000211140950E94790C3BCF411135C0AA85A7
:103B7000BB8596969C938E939597EA85FB8585A148
:103B800096A122A533A582179307C1F420AD31ADCC
:103B900043A1F8E04F9FA0011124AA85BB8596960A
:103BA0005C934E9395972F5F3F4FD9963C932E93FE
:103BB000D89701979B969C938E939A97EA85FB855D
:103BC00027A980AD91AD2817190609F014CF82E01E
:103BD00090E0968785870FCFEA85FB85458D4195D7
:103BE000808191810E94790CAA85BB8595966D9103
:103BF0007C9196976F5F7F4F96967C936E93959787
:103C00008D919C9111975D96EC915D97D4962D9135
:103C10003C91D597D8964D915C91240F351FEE239A
:103C200031F0F901408140950E94790CA6CFD9016D
:103C30004C91FACF8130910508F42ACF8430910558
:103C400068F0059709F024CFEA85FB858189928980
:103C500093A782A796A385A376866586AA85BB854A
:103C6000CD90DC9011975D968C9188248A94912C4C
:103C7000811102C0912C812CEA85FB85A388B48830
:103C8000AA85BB859596ED90FC906E2DC6010E948D
:103C9000D607EA85FB8522A533A58815190451F4BA
:103CA0002A153B053CF0C901019793A782A736A3CB
:103CB00025A3E6CF2F5F3F4F2A153B050CF4E8CE36
:103CC000EA85FB8524A1F8E02F9F90011124295F4C
:103CD0003F4FE216F3063CF4B7016F5F7F4F482F6A
:103CE000C6010E94790CAA85BB855D964C915D97B3
:103CF000419595966D917C9196978D919C910E949E
:103D0000790CEA85FB8525A136A12F5F3F4F36A3AD
:103D100025A384A190E0019643E0880F991F4A955E
:103D2000E1F72817390709F066CE82A593A59C0113
:103D30002150310933A722A796A385A35CCEEA853B
:103D4000FB8585859685332009F467C0843091050D
:103D500008F042C0019708F443C08A859B850E9401
:103D6000AF128A859B850E94CA12EA85FB8593A0C3
:103D7000990C990C990C88248394AA85BB859596F7
:103D8000ED90FC90969794968C91949790E0019684
:103D900023E0880F991F2A95E1F7A92CB12CA816CA
:103DA000B90674F5CD90DC90692DC6010E94D60746
:103DB000482F50E087E090E08E199F093320D9F01A
:103DC00002C0559547958A95E2F7B501C6010E9454
:103DD000790C38249394D1CF059709F4BECF00CE47
:103DE000AA85BB8596961C921E9295971E967C92EC
:103DF0006E921D97B2CF01C0440F8A95EAF7E5CFC6
:103E0000BFEFEB1AFB0AEA85FB85F6A2E5A2F8E014
:103E1000EF16F10409F0EFCD2ECE8430910598F520
:103E20000197A0F1AA85BB8593969C90990C990C5B
:103E3000990C8824839433243394EA85FB85E5A088
:103E4000F6A084A190E00196B3E0880F991FBA957F
:103E5000E1F7A92CB12CA816B9065CF5C080D18079
:103E6000692DC6010E94D607482F50E08820D9F05E
:103E700001C0440FEA94EAF7B501C6010E94790C2B
:103E800083249394DACF059709F002CEE1E0F0E0C5
:103E9000AA85BB859696FC93EE9395971E967C9289
:103EA0006E921D97BFCF02C055954795EA94E2F7F1
:103EB000E3CFFFEFEF1AFF0AAA85BB859696FC9227
:103EC000EE929597B8E0EB16F10409F094CDEA85EF
:103ED000FB8508C4EA85FB8585859685332009F432
:103EE0005AC08430910500F58230910500F50097A5
:103EF00081F1019709F0BFCDAA85BB8595966D919B
:103F00007C919697CB01019696969C938E9395976C
:103F1000CD010E9467198A859B850E94CA12EA8595
:103F2000FB857686658667CD059709F0A4CDAA85C1
:103F3000BB8595966D917C9196979A968D919C9163
:103F40009B9786179707ECF41E965C924E921D97EE
:103F500052CDAA85BB8596961C921E9295979196F6
:103F60008C91919790E09B969C938E939A97CD011C
:103F70000E94AF1221E030E0EA85FB853687258775
:103F80003ACDCB010196EA85FB8596A385A3CF01A7
:103F90000E94671930CD8430910598F40197A0F004
:103FA000EA85FB8565A176A1CB01019777FFEBCF71
:103FB00062A5CF010E9467198A859B850E94AF1276
:103FC00067CD059709F064CDEA85FB8561A1862F51
:103FD00090E093A782A796A385A3CF010E946719BB
:103FE0008A859B850E94CA12AA85BB856FCDEA850A
:103FF000FB85858596858230910509F45DC048F47E
:10400000009769F00197B9F031102EC186E090E079
:10401000E6C08330910509F492C00597A9F7AA85F7
:10402000BB8596961C921E929597E1E0F0E01E9655
:10403000FC93EE931D97AA85BB8595968D919C91D7
:104040009697019696969C938E9395979396EC905F
:10405000B8E0EB9E70011124DD24D394EA85FB8542
:1040600025A136A184A190E00196A3E0880F991FB5
:10407000AA95E1F7E816F90694F4C7018370992729
:104080008217930744F4458D4D254195B7018081F2
:1040900091810E94790CFFEFEF1AFF0ADFCF82E0D7
:1040A00090E02430310509F0A6CCAA85BB851E9688
:1040B0009C938E931D979FCC8A859B850E94AF12FF
:1040C000332021F08A859B850E94CA12EA85FB85F0
:1040D00085A196A1019796A385A3E3A0F8E0EF9EA2
:1040E00070011124DD24D394AA85BB8595962D916A
:1040F0003C91969794968C91949790E00196F3E07A
:10410000880F991FFA95E1F7E816F906A4F4C7019C
:10411000837099278217930754F45D964C915D97AD
:104120004D254195B7018D919C910E94790CBFEF6F
:10413000EB1AFB0AD9CF232B09F05DCCF0CE8A8590
:104140009B850E94AF12332009F412C18A859B859A
:104150000E94CA1285E090E0A8CFAA85BB851D9673
:104160008D919C918230910509F43CC038F08330E8
:10417000910509F46EC0059709F0F8C0EA85FB8542
:10418000E3A0F8E0EF9E70011124AA85BB85949608
:104190008C91949790E00196E3E0880F991FEA953F
:1041A000E1F7E816F906CCF45D96BC905D97CD90EA
:1041B000DC906E2DC6010E94D607B110809545E5B2
:1041C000E0FE4AEA482BB1104095B701C6010E94B3
:1041D000790CBFEFEB1AFB0AD8CF82E090E0EA85BA
:1041E000FB85F7CC8A859B850E94AF12332021F096
:1041F0008A859B850E94CA12AA85BB859396EC90FE
:10420000B8E0EB9E70011124EA85FB8584A190E063
:10421000019673E0880F991F7A95E1F7E816F90681
:104220000CF0E2CEB58CC080D1806E2DC6010E940C
:10423000D607B11080954AEAE0FE45E5482BB1105B
:104240004095B701C6010E94790CFFEFEF1AFF0AF3
:10425000DBCF8A859B850E94AF12332009F4D6CE2E
:104260008A859B850E94CA1285E090E0B8CFEA85D6
:10427000FB85858596858430910508F07CC0019783
:1042800008F47CC0EA85FB8516A215A20E94E628E8
:104290004B015C010E94E6286E837F8388879987A3
:1042A000AA85BB859596CD90DC90BFEFCB1ADB0A33
:1042B000EA85FB85D6A2C5A2C501B4012BE030E09A
:1042C00040E050E00E94732970E09B01245C3D4F68
:1042D0007901D901BC906E817F818885998528E01C
:1042E00030E040E050E00E9473298B2D90E0062ED4
:1042F00002C0959587950A94E2F780FF05C0B8E85B
:10430000CB16B3E1DB0614F281E090E001C0880F28
:104310006A95EAF7B82AF701B0828A859B850E94E0
:10432000CA12AA85BB8596961C921E929597939663
:10433000BC90BB0CBB0CBB0CEA85FB8584A190E058
:10434000019663E0880F991F6A95E1F7CB2CD12C79
:10435000C816D90614F1ECE3F2E081918F3F09F021
:104360004ACB24E432E02E173F07B9F73110F2CEE2
:1043700086E090E09ACE059709F046CEECE3F2E0B5
:10438000119227E432E02E173F07D1F7AA85BB85AB
:104390001E967C926E921D9775CFAA85BB85ED9077
:1043A000FC906B2DC7010E94D607AA85BB85959608
:1043B000ED91FC91E45CFD4F4081311001C04095CE
:1043C0004823B601C7010E94790CEA85FB8585A1C7
:1043D00096A101968B30910521F096A385A3B39405
:1043E000ABCFAA85BB8596961C921E929597F7CF68
:1043F000AA85BB851D968D919C913110C6C18430D4
:10440000910508F0BEC1019778F58A859B850E94C9
:104410002207EA85FB8580A591A522A533A58217F1
:10442000930724F431A720A793A782A7AA85BB8569
:10443000DE968D919C91DF97892B09F4C6C1EA85A0
:10444000FB8583A1F8E08F9FC00111240197AA8505
:10445000BB8596969C938E93959797961C9297976B
:104460001E967C926E921D978A859B850E94CA1229
:10447000EA85FB8585A196A1019696A385A3F12CDB
:104480006F01F1E4CF0ED11CD6012C91EA85FB859A
:1044900065A176A1822F90E0F21608F0E1C04F2DC1
:1044A00050E0641B750B84A190E0019633E0880F07
:1044B000991F3A95E1F7681779072CF583A1F8E081
:1044C0008F9FC001112468177907ECF0AA85BB857E
:1044D0008D919C91119797963C91979732039001FB
:1044E0001124420F531FDE96ED91FC91DF97E40FEC
:1044F000F51F5D962C91222309F4B0C0E4914E2F54
:1045000040950E94790CF394BFCFEA85FB8517A2F2
:1045100084A190E0019653E0880F991F5A95E1F726
:1045200096A385A3768665868A859B850E94CA1296
:10453000AA85BB8595968D919C91969701979696A5
:104540009C938E939597F12C6D01B0E4CB0ED11C0A
:10455000F6012081AA85BB8595966D917C919697F1
:10456000F21608F03AC0EF2DF0E06E0F7F1F949620
:104570008C91949790E0019643E0880F991F4A959B
:10458000E1F7681779072CF593968C91B8E08B9F2B
:10459000C001112468177907E4F0AA85BB858D91C5
:1045A0009C91119797964C9197974203A0011124E3
:1045B0004E0F5F1FDC96ED91FC91DD97E40FF51F28
:1045C0005D962C91222339F0E4914E2F40950E9464
:1045D000790CF394BDCF4491FACF7B01B1E0EB1A93
:1045E000F108EA85FB8582A593A5E816F9065CF03B
:1045F000458D4195B701808191810E94790CF1E050
:10460000EF1AF108EECFAA85BB8597968C91979704
:104610008F5F97968C939797082E000C990BFD014E
:10462000EE5BFF4F20812817190609F014F49796C6
:104630001C92EA85FB8583A1F8E08F9FC0011124BD
:10464000D6012C91821B91090197EA85FB8525A152
:1046500036A12817390709F0CEC9C4C9449151CFF2
:104660007B01E81AF90AEA85FB8582A593A5E8167D
:10467000F9065CF0458D4195B701808191810E94DA
:10468000790CF1E0EF1AF108EECFAA85BB85979679
:104690008C9197978F5F97968C939797082E000C25
:1046A000990BFD01ED5BFF4F20812817190609F0DA
:1046B00014F497961C92EA85FB8584A1F8E08F9FFD
:1046C00090011124295F3F4FD6018C91820F932FC7
:1046D000911D0196EA85FB8525A136A1281739078A
:1046E00009F089C91687058786C9432D60E08A8548
:1046F0009B850E941F137FC9432D61E0F8CF41E0E5
:10470000632D8A859B850E94981475C940E0F8CF77
:1047100041E0632D8A859B850E94DF136CC940E0D0
:10472000F8CF432D60E08A859B850E94FD1563C903
:10473000432D61E0F8CF432D60E08A859B850E9480
:10474000141759C9432D61E0F8CF232D41E061E0F2
:104750008A859B850E9478194EC9232D40E0F7CFAA
:10476000232D41E060E0F4CF232D40E0FBCF432D2B
:1047700061E08A859B850E9434153DC9432D60E028
:10478000F8CF059709F441CE83C98430910510F51F
:10479000019708F0C9CE8A859B850E942207EA8589
:1047A000FB8580A591A522A533A58217930724F444
:1047B00031A720A793A782A7AA85BB85DC968D91F8
:1047C0009C91DD97892B09F0A0CE1E961C930E9329
:1047D0001D9711C9059709F4A7CE4DC941E050E0D6
:1047E0006AE070E08C819D810E94F51A89812B9688
:1047F0000FB6F894DEBF0FBECDBFDF91CF911F91F2
:104800000F91FF90EF90DF90CF90BF90AF909F906F
:104810008F907F906F905F904F903F902F90089572
:10482000AF92BF92CF92DF92EF92FF920F931F93BE
:10483000CF93DF93EC015B0188A541E050E0882332
:1048400021F0EDA1FEA146895789D12CC12CEE247F
:10485000E394F12C10E000E030E020E0B501CE015F
:104860000E944904CE010E94021B8111FBCFF50179
:1048700001900020E9F7CF0101978A199B09DF9188
:10488000CF911F910F91FF90EF90DF90CF90BF904D
:10489000AF9008951F920F920FB60F9211242F938D
:1048A0003F938F939F93AF93BF93809154029091C6
:1048B0005502A0915602B09157023091530223E065
:1048C000230F2D3758F50196A11DB11D20935302DA
:1048D0008093540290935502A0935602B0935702CE
:1048E0008091580290915902A0915A02B0915B02B6
:1048F0000196A11DB11D8093580290935902A09377
:104900005A02B0935B02BF91AF919F918F913F91FB
:104910002F910F900FBE0F901F90189526E8230F30
:104920000296A11DB11DD2CF1F920F920FB60F920A
:1049300011240BB60F922F933F934F935F936F9376
:104940007F938F939F93AF93BF93EF93FF938CE5E8
:1049500092E00E943206FF91EF91BF91AF919F913B
:104960008F917F916F915F914F913F912F910F9018
:104970000BBE0F900FBE0F901F9018951F920F92B5
:104980000FB60F9211240BB60F922F938F939F9314
:10499000EF93FF93E0916C02F0916D028081E091C2
:1049A0007202F091730282FD1DC0908180917502A8
:1049B0008F5F8F7320917602821741F0E09175022C
:1049C000F0E0E45AFD4F958F80937502FF91EF91CF
:1049D0009F918F912F910F900BBE0F900FBE0F9054
:1049E0001F9018958081F2CF1F920F920FB60F92F1
:1049F00011240BB60F922F933F934F935F936F93B6
:104A00007F938F939F93AF93BF93CF93EF93FF9336
:104A100083B1C091470290914A02C923982F909583
:104A2000C92380934702C4FF05C0E0910002F091C2
:104A300001021995C5FF05C0E0910202F091030241
:104A40001995C6FF05C0E0910402F0910502199581
:104A5000C7FF05C0E0910602F09107021995C0FF5B
:104A600005C0E0910802F09109021995C1FF05C047
:104A7000E0910A02F0910B021995C2FF05C0E09186
:104A80000C02F0910D021995C3FF05C0E0910E02D2
:104A9000F0910F021995FF91EF91CF91BF91AF91D6
:104AA0009F918F917F916F915F914F913F912F9146
:104AB0000F900BBE0F900FBE0F901F901895ECE556
:104AC000F2E01382128288EE93E0A0E0B0E08483EB
:104AD0009583A683B7838EE192E09183808385ECF2
:104AE00090E09587848784EC90E09787868780ECB8
:104AF00090E0918B808B81EC90E0938B828B82ECA9
:104B000090E0958B848B86EC90E0978B868B118E52
:104B1000128E138E148EEAEFF2E01382128280E37B
:104B200092E0918380838BE081878DE082878AE0A9
:104B30008387148689EF92E09687858784E087874C
:104B400091E0908F21E030E03583248396831782B3
:104B5000108687A30895789484B5826084BD84B557
:104B6000816084BD85B5826085BD85B5816085BD68
:104B700080916E00816080936E0010928100809120
:104B800081008260809381008091810081608093A8
:104B90008100809180008160809380008091B100CD
:104BA00084608093B1008091B00081608093B000F8
:104BB000809191008260809391008091910081604A
:104BC000809391008091900081608093900080910B
:104BD000A10082608093A1008091A10081608093F8
:104BE000A1008091A00081608093A00080912101AC
:104BF0008260809321018091210181608093210155
:104C00008091200181608093200180917A008460EE
:104C100080937A0080917A00826080937A008091FC
:104C20007A00816080937A0080917A008068809316
:104C30007A001092C100E0916C02F0916D0282E066
:104C40008083E0916802F09169021082E0916A022B
:104C5000F0916B0280E1808310927402E091700207
:104C6000F091710286E08083E0916E02F0916F0214
:104C7000808180618083E0916E02F0916F0280817B
:104C800088608083E0916E02F0916F02808180687D
:104C90008083E0916E02F0916F0280818F7D80832E
:104CA00062E086E10E94670562E087E10E94670595
:104CB00062E088E10E94670562E089E10E94670581
:104CC00062E08AE10E94670562E08BE10E9467056D
:104CD00062E08CE10E94670562E08DE10E94670559
:104CE00062E082E30E94670584E898E090930F02F7
:104CF00080930E0280914A02886080934A0283B1B9
:104D00008093470280916B00886080936B00809154
:104D1000680081608093680080910603882309F40D
:104D2000E4C0CFB7F89480914902811127C0EBE825
:104D3000F7E08491E1EDF7E09491E82FF0E0EE0FD9
:104D4000FF1FEE5DF84FA591B491EC91E92321F49A
:104D500061E085E30E94DB0461E085E30E94670572
:104D60008CB580618CBD8CB580648CBD61E084E3C2
:104D70000E94670561E083E30E9467058091490214
:104D80008F5F80934902CFBF61E0809105030E944D
:104D9000670561E0809105030E94DB0410920F0318
:104DA00010920E031092110310921003C091090388
:104DB00029E0C29FC00111240E94DE2990930B03B9
:104DC00080930A038C2F90E0880F991F0E94DE29A0
:104DD00090930D0380930C0380911403909115031D
:104DE000885F914051F088EF91E090931503809394
:104DF00014038EEF92E00E94DD0750E040E063E094
:104E000070E08EEF92E00E94F51A47E050E061E01A
:104E100070E08EEF92E00E94F51A47E050E062E009
:104E200070E08EEF92E00E94F51A50E040E064E0FE
:104E300070E08EEF92E00E94F51A40910903415014
:104E400060E08EEF92E00E94A80F50E040E070E03A
:104E500060E08EEF92E00E94F51AC1E0C093220359
:104E600086E490E00E94DE29FC0181E090E09183DD
:104E70008083138212821482158216821782108612
:104E800086E090E0908B878711A210A212A217A64D
:104E900016A614AA13AA15AA17AA16AAC0AF15AE69
:104EA00014AE17AE16AEDF01A05CBF4F1D921C9270
:104EB0003296F0932003E0931F03C0E0D4E40EEF9A
:104EC00012E080912203E0911F03F0912003C817A4
:104ED000B8F4CF01CD9F800D911D1124FC011183E9
:104EE00000830E946809CF5FECCF61E080910303EB
:104EF0000E94670561E0809104030E94670544CF2A
:104F0000813041F4209121039FEF920F921710F40A
:104F100013A294A3DF0190E02AE030E0891761F04A
:104F200018963C932E9317971A963C932E931997A5
:104F30009F5FAC5BBF4FF2CF8823C9F0878190851C
:104F40004AE0489F9001499F300D112480E094E48D
:104F500040912203841770F4DF01899FA00DB11DD9
:104F600011241C963C932E931B978F5FF1CF90E0FA
:104F700080E0E6CFC0E014E4D1E040911F035091FF
:104F8000200380912203C81758F4CA01C19F800DE5
:104F9000911D1124FC01D6AB0E946809CF5FEDCFB3
:104FA00090E084E420912203921748F4FA01989F3C
:104FB000E00DF11D1124178E168E9F5FF3CF90E048
:104FC00084E420912203FA01921768F090E061E0F6
:104FD00070E0921781F0718F608F138E128E9F5F39
:104FE000EC5BFF4FF6CF989FE00DF11D1124178A5F
:104FF000168A9F5FE6CF90E084E420912203921707
:1050000040F4FA01989FE00DF11D1124158E9F5F69
:10501000F4CF4AE06CE472E0809151029091520228
:105020000E943E298AEF92E00E94021B882391F0A1
:1050300082E0C82ED12C92E0E92EF12C08EE13E08C
:1050400022E330E041E050E06CE472E08AEF92E06D
:105050000E94490480912203882339F0E0911F03C4
:10506000F091200380A1836080A30E94C106D1CF6C
:105070000F931F93CF93DF9380E392E09093FB0213
:105080008093FA02C0911F03D0912003209759F119
:10509000FE0132972081318144E4429FC001439F49
:1050A000900D1124C80FD91F80911F0390912003E8
:1050B0008C179D07A1F0C454D10989A99AA900971A
:1050C00039F0FC01048115810E947A2AC801F7CFCA
:1050D0008CA99DA9009741F30E947A2AE5CFCE01C1
:1050E00002970E947A2A80910603882399F09FB73D
:1050F000F89480914902882319F0815080934902E5
:1051000080914902811105C08CB58F7B8CBD1092B6
:105110003B029FBF80910A0390910B030E947A2A61
:1051200080910C0390910D03DF91CF911F910F910E
:105130000C947A2A8F929F92AF92BF92CF92DF9275
:10514000EF92FF92CF93DF93EC01688179818A819E
:105150009B81611571058105910521F464E279ED6A
:105160008BE597E02DE133EF41E050E00E94732999
:1051700049015A019B01AC01A7EAB1E40E949229BE
:105180006B017C01ACEEB4EFA50194010E94A02953
:10519000C60ED71EE81EF91EF7FE06C081E0C81A2B
:1051A000D108E10880E8F80AC882D982EA82FB8245
:1051B000C701B6019F77DF91CF91FF90EF90DF900D
:1051C000CF90BF90AF909F908F9008958F929F92B5
:1051D000AF92BF92CF92DF92EF92FF926091100256
:1051E0007091110280911202909113026115710564
:1051F0008105910521F464E279ED8BE597E02DE1DD
:1052000033EF41E050E00E94732949015A019B01AC
:10521000AC01A7EAB1E40E9492296B017C01ACEEDB
:10522000B4EFA50194010E94A029C60ED71EE81E66
:10523000F91EF7FE06C081E0C81AD108E10880E82F
:10524000F80AC0921002D0921102E0921202F0927B
:105250001302C701B6019F77FF90EF90DF90CF90C8
:10526000BF90AF909F908F900895609310027093BD
:10527000110280931202909313020895BB274A30C3
:1052800031F4992322F4BDE2909581959F4F0C94BF
:105290004A29BB27FB015527AA27880F991FAA1F58
:1052A000A41710F0A41B83955051B9F7A05DAA3341
:1052B00008F0A95DA193009779F7B111B19311920C
:1052C000CB010C946329DC01FC01672F71917723DA
:1052D000E1F7329704C07C916D9370836291AE17B1
:1052E000BF07C8F30895052E97FB1EF400940E9493
:1052F0008A2957FD07D00E94A52907FC03D04EF448
:105300000C948A2950954095309521953F4F4F4FE9
:105310005F4F089590958095709561957F4F8F4F61
:105320009F4F08950E94C729A59F900DB49F900D8F
:10533000A49F800D911D11240895B7FF0C9492290C
:105340000E949229821B930B0895A1E21A2EAA1B98
:10535000BB1BFD010DC0AA1FBB1FEE1FFF1FA21725
:10536000B307E407F50720F0A21BB30BE40BF50B22
:10537000661F771F881F991F1A9469F760957095AB
:10538000809590959B01AC01BD01CF010895A29F2E
:10539000B001B39FC001A39F700D811D1124911D09
:1053A000B29F700D811D1124911D0895EE0FFF1FF6
:1053B000881F8BBF0790F691E02D19940F931F93D0
:1053C000CF93DF938230910510F482E090E0E0917A
:1053D0002503F091260330E020E0B0E0A0E0309714
:1053E00099F42115310509F44AC0281B390B2430E2
:1053F0003105D8F58A819B816115710589F1FB0121
:1054000093838283FE0111C0408151810281138107
:1054100048175907E0F04817590799F4109761F0B9
:1054200012960C93129713961C933296CF01DF912C
:10543000CF911F910F910895009325031093260398
:10544000F4CF2115310551F04217530738F0A90167
:10545000DB019A01BD01DF01F801C1CFEF01F9CFF6
:105460009093260380932503CDCFFE01E20FF31F17
:10547000819391932250310939832883D7CF20918A
:10548000230330912403232B41F420911602309101
:1054900017023093240320932303209114023091A8
:1054A00015022115310541F42DB73EB74091180280
:1054B00050911902241B350BE0912303F091240332
:1054C000E217F307A0F42E1B3F0B2817390778F0DB
:1054D000AC014E5F5F4F2417350748F04E0F5F1F3A
:1054E0005093240340932303819391939FCFF0E043
:1054F000E0E09CCFCF93DF930097E9F0FC01329777
:1055000013821282A0912503B0912603ED0130E0B1
:1055100020E01097A1F420813181820F931F209108
:105520002303309124032817390709F061C0F09351
:105530002403E0932303DF91CF910895EA01CE176E
:10554000DF07E8F54A815B819E0141155105B1F7FE
:10555000E901FB83EA8349915991C40FD51FEC17E8
:10556000FD0761F4808191810296840F951FE90106
:1055700099838883828193819B838A83F0E0E0E032
:1055800012968D919C9113970097B9F52D913C91AE
:105590001197CD010296820F931F20912303309122
:1055A00024032817390739F6309751F5109226034E
:1055B00010922503B0932403A0932303BCCFD3837D
:1055C000C28340815181840F951FC817D90761F4A8
:1055D0004E5F5F4F88819981480F591F51834083E7
:1055E0008A819B81938382832115310509F0B0CF95
:1055F000F0932603E09325039ECFFD01DC01C0CF8D
:1056000013821282D7CFFB01DC0102C001900D9200
:1056100041505040D8F70895DC0101C06D934150CE
:105620005040E0F7089514E0C5E1D4E000E006C082
:10563000802FFE010E94D6292196011DC631D10777
:0A56400080E00807A9F7F894FFCFF7
:10564A00BD05BD05BD05BD05BD05BD05BD05BD0540
:10565A00010000000000270380000000000054063B
:10566A00BE05EB05A1061C06FA050E0600000000A1
:0A567A00C2088609DC08DB081024D2
:00000001FF
