:100000000C9457010C9488010C9488010C9488017D
:100010000C9488010C9488010C9488010C9488013C
:100020000C9488010C9488010C9488010C9488012C
:100030000C9488010C9488010C9488010C9488011C
:100040000C9488010C9488010C9488010C9488010C
:100050000C9488010C9488010C9488010C94D503AD
:100060000C9488010C9449040C941F040C9488018E
:100070000C9488010C9488010C9488010C948801DC
:100080000C9488010C9488010C9488010C948801CC
:100090000C9488010C9488010C9488010C948801BC
:1000A0000C9488010C9488010C9488010C948801AC
:1000B0000C9488010C9488010C9488010C9488019C
:1000C0000C9488010C9488010C9488010C9488018C
:1000D0000C9488010C9488010C9488010C9488017C
:1000E0000C9488010C942F070C94B0060C94BD015D
:1000F0000C9479020C94B2010C94ED010C94B506A9
:100100000C94E9010C94B5020C9406070C94A80118
:100110000C94D7020C94CD010C94D1010C94C9021B
:100120000C94DF010C9465070C945C030C94C301E0
:100130000C94EE060C94BA010C94E8010C94A602FF
:100140000C9412070C9423070C94DB010C945F07AA
:100150000C94DE060C94BA060C94FA060C94E6068F
:100160000C943B070C94D2060C94C7010C94C60661
:100170000C940F030C9447070C94D5010C9453076F
:100180000C94AE010C94E3010C94B6010000210024
:10019000240027002A002D00300033000101000058
:1001A000040107010A0100002200250028002B009D
:1001B0002E003100340002010000050108010B018E
:1001C000000020002300260029002C002F00320010
:1001D00000010000030106010901050505050705E9
:1001E00008080808020202020A0A080804040404B3
:1001F00001010101010101010303030303030303DF
:10020000040707070C0C0C0C0C0C0C0C020202026D
:1002100006060606060606060B0B0B0B0B0B0B0B56
:100220000102102020080810204010204080020108
:1002300002010804020101020408102040808040ED
:1002400020100804020180040201804020100804EC
:10025000020108040201010204081020408001028A
:1002600004081020408000000A0B02090C0D0E0843
:10027000070304010000000000000000000000006F
:10028000000000000000000000000000000000006E
:10029000000012111000000000000000000000002B
:1002A00000000000000000000000000065071124AD
:1002B0001FBECFEFD1E2DEBFCDBF00E00CBF12E02A
:1002C000A0E0B2E0E4E9F4E100E00BBF02C0079077
:1002D0000D92A432B107D9F722E0A4E2B2E001C046
:1002E0001D92AE3CB207E1F711E0C7E5D1E000E0B6
:1002F00006C021970109802FFE010E942308C63500
:10030000D10780E00807A9F70E947F040C94480AEF
:100310000C9400008150823108F05AC0E82FF0E0C0
:100320008827EA56FE4F8F4F0C942308B601BA0176
:10033000A801AE01B201E801BD01C301C701CD01B1
:10034000D101D501DB01DF01E801E301E901ED01A4
:10035000809180008F778093800008958091800045
:100360008F7DF9CF80918000877FF5CF84B58F771F
:1003700084BD089584B58F7DFBCF8091B0008F77C9
:100380008093B00008958091B0008F7DF9CF809167
:1003900090008F77809390000895809190008F7DDA
:1003A000F9CF80919000877FF5CF8091A0008F7763
:1003B0008093A00008958091A0008F7DF9CF809157
:1003C000A000877FF5CF809120018F778093200157
:1003D0000895809120018F7DF9CF80912001877F42
:1003E000F5CFCF93DF93282F30E0F901EA59FD4F85
:1003F0008491F901E05EFD4FD491F901E652FE4F80
:10040000C491CC23A1F081110E948A01EC2FF0E06D
:10041000EE0FFF1FE054FE4FA591B491EC91ED2338
:1004200081E090E009F480E0DF91CF91089580E0D1
:1004300090E0FACF1F93CF93DF93282F30E0F9019C
:10044000EA59FD4F8491F901E05EFD4FD491F90125
:10045000E652FE4FC491CC23A9F0162F81110E94C1
:100460008A01EC2FF0E0EE0FFF1FEA55FE4FA59139
:10047000B4918FB7F894EC91111108C0D095DE2398
:10048000DC938FBFDF91CF911F910895DE2BF8CFC2
:10049000CF93DF9390E0FC01E05EFD4F2491865204
:1004A0009E4FFC0184918823D1F090E0880F991F22
:1004B000FC01E457FE4FA591B491FC01EA55FE4FB3
:1004C000C591D491623071F49FB7F8943C91822F1A
:1004D000809583238C93E8812E2B28839FBFDF9107
:1004E000CF9108958FB7F894EC912E2B2C938FBF5A
:1004F000F6CFAF92BF92CF92DF92EF92FF920F931F
:100500001F93CF93DF936C017B018B01040F151FA9
:10051000EB015E01AE18BF08C017D10759F0699111
:10052000D601ED91FC910190F081E02DC601199565
:10053000892B79F7C501DF91CF911F910F91FF9022
:10054000EF90DF90CF90BF90AF900895FC01538D56
:10055000448D252F30E0842F90E0821B930B54179D
:1005600010F0CF96089501970895FC01918D828D2A
:10057000981761F0A28DAE0FBF2FB11D5D968C91C3
:10058000928D9F5F9F73928F90E008958FEF9FEF02
:100590000895FC01918D828D981731F0828DE80FBE
:1005A000F11D858D90E008958FEF9FEF0895FC0178
:1005B000918D228D892F90E0805C9F4F821B910945
:1005C0008F739927089584E292E00E94D70221E078
:1005D000892B09F420E0822F0895FC01A48DA80F37
:1005E000B92FB11DA35ABF4F2C91848D90E0019675
:1005F0008F739927848FA689B7892C93A089B18995
:100600008C91837080648C93938D848D981306C035
:100610000288F389E02D80818F7D80830895EF9299
:10062000FF920F931F93CF93DF93EC0181E0888FAC
:100630009B8D8C8D98131AC0E889F989808185FF7C
:1006400015C09FB7F894EE89FF896083E889F9891E
:1006500080818370806480839FBF81E090E0DF9120
:10066000CF911F910F91FF90EF900895F62E0B8D73
:1006700010E00F5F1F4F0F731127E02E8C8D8E112E
:100680000CC00FB607FCFACFE889F989808185FF95
:10069000F5CFCE010E94ED02F1CFEB8DEC0FFD2FD7
:1006A000F11DE35AFF4FF0829FB7F8940B8FEA8950
:1006B000FB8980818062CFCFCF93DF93EC01888D5F
:1006C0008823B9F0AA89BB89E889F9898C9185FDCD
:1006D00003C0808186FD0DC00FB607FCF7CF8C915B
:1006E00085FFF2CF808185FFEDCFCE010E94ED0224
:1006F000E9CFDF91CF91089580E090E0892B29F038
:100700000E94E30281110E94000080E090E0892BAA
:1007100049F080E090E0892B29F00E9400008111CF
:100720000E94000080E090E0892B49F080E090E09A
:10073000892B29F00E94000081110E94000080E0B6
:1007400090E0892B49F080E090E0892B29F00E940D
:10075000000081110C94000008950F931F93CF9314
:10076000DF93EC0188819981009759F02A813B81C0
:100770002617370730F081E0DF91CF911F910F915D
:1007800008958B016F5F7F4F0E945709009759F0C2
:10079000998388831B830A832C813D81232B59F7FE
:1007A000FC011082E8CF80E0E7CF1F920F920FB6D6
:1007B0000F9211242F933F938F939F93AF93BF93E7
:1007C0008091C6029091C702A091C802B091C9025F
:1007D0003091C50223E0230F2D3758F50196A11D56
:1007E000B11D2093C5028093C6029093C702A093C7
:1007F000C802B093C9028091C1029091C202A09137
:10080000C302B091C4020196A11DB11D8093C10223
:100810009093C202A093C302B093C402BF91AF9160
:100820009F918F913F912F910F900FBE0F901F902E
:10083000189526E8230F0296A11DB11DD2CF1F9255
:100840000F920FB60F9211240BB60F922F933F9376
:100850004F935F936F937F938F939F93AF93BF93C8
:10086000EF93FF9384E292E00E94ED02FF91EF91FB
:10087000BF91AF919F918F917F916F915F914F91B8
:100880003F912F910F900BBE0F900FBE0F901F90B6
:1008900018951F920F920FB60F9211240BB60F925C
:1008A0002F938F939F93EF93FF93E0913402F091F6
:1008B00035028081E0913A02F0913B0282FD1DC039
:1008C000908180913D028F5F8F7320913E0282174D
:1008D00041F0E0913D02F0E0EC5DFD4F958F80939B
:1008E0003D02FF91EF919F918F912F910F900BBE41
:1008F0000F900FBE0F901F9018958081F2CFCF936D
:10090000DF93CDB7DEB7A8970FB6F894DEBF0FBE62
:10091000CDBF789484B5826084BD84B5816084BD88
:1009200085B5826085BD85B5816085BD80916E008D
:10093000816080936E0010928100809181008260BE
:1009400080938100809181008160809381008091FB
:1009500080008160809380008091B10084608093EA
:10096000B1008091B00081608093B00080919100CF
:1009700082608093910080919100816080939100CA
:10098000809190008160809390008091A1008260AE
:100990008093A1008091A10081608093A10080914B
:1009A000A00081608093A0008091210182608093EB
:1009B000210180912101816080932101809120019A
:1009C00081608093200180917A00846080937A0016
:1009D00080917A00826080937A0080917A008160B1
:1009E00080937A0080917A00806880937A001092D8
:1009F000C100E0913402F091350282E08083E09101
:100A00003002F09131021082E0913202F091330213
:100A100080E1808310923C02E0913802F09139022B
:100A200086E08083E0913602F09137028081806118
:100A30008083E0913602F091370280818860808364
:100A4000E0913602F0913702808180688083E091E6
:100A50003602F091370280818F7D808361E08CE0E7
:100A60000E94480261E08AE00E94480261E08BE057
:100A70000E94480262E086E10E94480262E087E14B
:100A80000E94480262E088E10E94480262E089E137
:100A90000E94480262E08AE10E94480262E08BE123
:100AA0000E94480262E08CE10E94480262E08DE10F
:100AB0000E94480200E4412C512C32014A94CE019C
:100AC00001966C0170E7872E72E0972E80917B0073
:100AD000877F80937B0000937C0080917A00806404
:100AE00080937A0080917A0086FDFCCF8091780017
:100AF000A0917900BA2FA82F2FEF30E00E942B0889
:100B00002FEF33E040E050E00E94D307122F1CA2E9
:100B10001BA21EA21DA218A61FA230E0A4E6B0E0F0
:100B20000E941408A30192010E94D307CA01B901CF
:100B30002AE0A6010E949207F60101900020E9F741
:100B400031977F01EC18FD08B701CE0183960E9412
:100B5000AD032BA13CA18111BCC02115310519F0B9
:100B6000C9010E94CE081CA21BA218A61FA21EA289
:100B70001DA21A8219821C821B821E821D8267E0BE
:100B800070E0C6010E94AD0329813A818111A8C09D
:100B90002115310519F0C9010E94CE081A82198267
:100BA0001E821D821C821B82ABA0BCA0A114B104BA
:100BB00009F4A0C0EFA0F8A4E114F104B1F08D8114
:100BC0009E81E80EF91EB701C6010E94AD0388237D
:100BD00009F490C029813A818D819E81B501820FEF
:100BE000931F0E94410AFE82ED824D815E816981E0
:100BF0007A8184E292E00E94790242E050E060E271
:100C000072E084E292E00E94790289819A810097E1
:100C100011F00E94CE088BA19CA1009711F00E94B8
:100C2000CE0886E10E94F1017C0187E10E94F1017A
:100C3000892B09F46CC091E080E0EF2809F090E086
:100C4000E92EF82E88E10E94F101892B19F443E086
:100C5000E42EF12C89E10E94F101892B19F434E092
:100C6000E32EF12C8AE10E94F101892B19F425E091
:100C7000E22EF12C8BE10E94F101892B19F496E010
:100C8000E92EF12C8CE10E94F101892B19F487E007
:100C9000E82EF12C8DE10E94F101892B09F412C19B
:100CA000EA94EF2809F00EC161E08CE00E941A027C
:100CB00061E08AE00E94480211112DC060E08AE0E4
:100CC0000E941A0260E08BE00E941A020E947C03DC
:100CD000FDCEF8A6EFA2B601C9010E94410A49CF94
:100CE00087E090E09E838D8368E172E0C9010E94F5
:100CF000410A5ACF89819A81009711F00E94CE084B
:100D00001A8219821E821D821C821B826ECF52E0C3
:100D1000E52EF12C97CFEFEF1E1302C061E0CFCF8D
:100D2000F4018491EFEFE80FE23108F0C8C0F0E081
:100D30008827E256F94F8F4F0C942308B006B5066A
:100D4000BA06C606D2065F07DE06E606EE06FA0615
:100D50000607120723072F075F073B0747075307BD
:100D600084B5806884BD17BDADCF84B5806284BD75
:100D700018BDA8CF80918000806880938000812F6B
:100D800090E090938900809388009CCF80918000B0
:100D9000806280938000812F90E090938B008093FD
:100DA0008A0090CF80918000886080938000812F9E
:100DB00090E090938D0080938C0084CF8091B00060
:100DC00080688093B0001093B3007CCF8091B00016
:100DD00080628093B0001093B40074CF8091900033
:100DE000806880939000812F90E090939900809389
:100DF000980068CF80919000806280939000812F4E
:100E000090E090939B0080939A005CCF809190003B
:100E1000886080939000812F90E090939D00809354
:100E20009C0050CF8091A00080688093A0008091AA
:100E3000A0008F7B8093A000812F90E09093A90069
:100E40008093A8003FCF8091A00080628093A00093
:100E5000812F90E09093AB008093AA0033CF8091D4
:100E6000A00088608093A000812F90E09093AD0057
:100E70008093AC0027CF809120018068809320016F
:100E8000812F90E090932901809328011BCF8091BE
:100E90002001806280932001812F90E090932B01AC
:100EA00080932A010FCF80912001886080932001D8
:100EB000812F90E090932D0180932C0103CF17FD9B
:100EC0002DCFFCCE60E08CE0FFCEE4E2F2E01382B6
:100ED000128288EE93E0A0E0B0E084839583A6833D
:100EE000B7838AE092E09183808385EC90E09587D8
:100EF000848784EC90E09787868780EC90E0918BE4
:100F0000808B81EC90E0938B828B82EC90E0958BD0
:100F1000848B86EC90E0978B868B118E128E138ECD
:100F2000148E0895BB272A3051F4992342F4BDE270
:100F300090958095709561957F4F8F4F9F4F0C9442
:100F4000A207BB27FA01A62F62177105810591053B
:100F5000330B30FB66F0AA27660F771F881F991F97
:100F6000AA1FA21710F0A21B63953850A9F7A05D25
:100F7000AA3308F0A95DA19336F7B111B19310829D
:100F8000CA010C94C307DC01FC01672F7191772320
:100F9000E1F7329704C07C916D9370836291AE1734
:100FA000BF07C8F30895052E97FB1EF400940E9416
:100FB000EA0757FD07D00E94F20707FC03D04EF462
:100FC0000C94EA0750954095309521953F4F4F4F2F
:100FD0005F4F089590958095709561957F4F8F4FE5
:100FE0009F4F0895A1E21A2EAA1BBB1BFD010DC045
:100FF000AA1FBB1FEE1FFF1FA217B307E407F507C9
:1010000020F0A21BB30BE40BF50B661F771F881FA4
:10101000991F1A9469F760957095809590959B013A
:10102000AC01BD01CF010895A29FB001B39FC001E3
:10103000A39F700D811D1124911DB29F700D811D04
:101040001124911D0895EE0FFF1F881F8BBF07907D
:10105000F691E02D19940E941408B7FF0895821BA1
:10106000930B08950F931F93CF93DF9382309105D5
:1010700010F482E090E0E091CC02F091CD0230E0FB
:1010800020E0B0E0A0E0309799F42115310509F493
:101090004AC0281B390B24303105D8F58A819B8141
:1010A0006115710589F1FB0193838283FE0111C0F3
:1010B000408151810281138148175907E0F0481798
:1010C000590799F4109761F012960C9312971396A2
:1010D0001C933296CF01DF91CF911F910F9108950C
:1010E0000093CC021093CD02F4CF2115310551F0BD
:1010F0004217530738F0A901DB019A01BD01DF0156
:10110000F801C1CFEF01F9CF9093CD028093CC02CB
:10111000CDCFFE01E20FF31F81939193225031094D
:1011200039832883D7CF2091CA023091CB02232B59
:1011300041F420910202309103023093CB022093BC
:10114000CA0220910002309101022115310541F4BB
:101150002DB73EB74091040250910502241B350B78
:10116000E091CA02F091CB02E217F307A0F42E1B24
:101170003F0B2817390778F0AC014E5F5F4F2417FB
:10118000350748F04E0F5F1F5093CB024093CA02C1
:10119000819391939FCFF0E0E0E09CCFCF93DF93DA
:1011A0000097E9F0FC01329713821282A091CC02E1
:1011B000B091CD02ED0130E020E01097A1F4208144
:1011C0003181820F931F2091CA023091CB022817E0
:1011D000390709F061C0F093CB02E093CA02DF91B6
:1011E000CF910895EA01CE17DF07E8F54A815B81C8
:1011F0009E0141155105B1F7E901FB83EA8349914D
:101200005991C40FD51FEC17FD0761F480819181BE
:101210000296840F951FE9019983888382819381C7
:101220009B838A83F0E0E0E012968D919C91139766
:101230000097B9F52D913C911197CD010296820F3F
:10124000931F2091CA023091CB022817390739F633
:10125000309751F51092CD021092CC02B093CB0290
:10126000A093CA02BCCFD383C28340815181840F33
:10127000951FC817D90761F44E5F5F4F8881998128
:10128000480F591F518340838A819B8193838283B6
:101290002115310509F0B0CFF093CD02E093CC02D7
:1012A0009ECFFD01DC01C0CF13821282D7CF4F92B7
:1012B0005F926F927F928F929F92AF92BF92CF92E6
:1012C000DF92EF92FF920F931F93CF93DF938C01E6
:1012D000009799F4CB01DF91CF911F910F91FF906F
:1012E000EF90DF90CF90BF90AF909F908F907F90C6
:1012F0006F905F904F900C943208FC01E60FF71F3F
:101300009C0122503109E217F30708F4AEC0D9015D
:10131000CD91DC911197C617D70720F1C530D105C3
:1013200078F0CE0104978617970750F0C61BD70BAD
:101330002297C193D1936D937C93CF010E94CE08E5
:10134000C801DF91CF911F910F91FF90EF90DF9037
:10135000CF90BF90AF909F908F907F906F905F9055
:101360004F9008955B01AC1ABD0A4C018C0E9D1E76
:10137000A091CC02B091CD02512C412CF12CE12C4A
:10138000109731F58091CA029091CB02881599058A
:1013900009F05CC04616570608F058C0809100025C
:1013A00090910102009741F48DB79EB740910402DD
:1013B00050910502841B950BE817F90708F055C0FA
:1013C000F093CB02E093CA02F90171836083B8CF36
:1013D0008D919C91119712966C90129713967C9018
:1013E0001397A815B90559F56C0142E0C40ED11C3C
:1013F000CA14DB0420F1AC014A195B09DA01129628
:10140000159780F06282738251834083D9016D9376
:101410007C93E114F10471F0D7011396FC93EE93E1
:1014200012978ECF22968C0F9D1FF9019183808396
:10143000F301EFCFF093CD02E093CC0281CF4816B9
:10144000590608F42C017D01D3019ACFCB010E94EB
:1014500032087C01009749F0AE01B8010E94380AB9
:10146000C8010E94CE0887016BCF10E000E068CF72
:10147000FB01DC0102C001900D9241505040D8F7B1
:101480000895FB01DC0101900D920020E1F7089521
:04149000F894FFCFFE
:101494000000CE028000000000000F037902A602C3
:1014A4005C03D702B502C9027370656564203D0010
:0414B4000D0A00001D
:00000001FF
